:020000040000FA
:10000000C0450020F10700005D0200005902000019
:100010005902000059020000590200005902000074
:10002000000000000000000000000000FD070000CC
:100030005902000000000000A102000015080000A5
:10004000ED180000BF1900007519000083180000AA
:1000500000000000000000000000000000000000A0
:100060000000000000000000000000000000000090
:100070000000000000000000000000000000000080
:100080000000000000000000000000000000000070
:100090000000000000000000000000000000000060
:1000A0000000000000000000000000000000000050
:1000B0000000000000000000000000000000000040
:1000C0000000000000000000000000000000000030
:1000D0000000000000000000000000000000000020
:1000E0000000000000000000000000000000000010
:1000F0000000000000000000000000000000000000
:1001000000000000000000000000000000000000EF
:1001100000000000000000000000000000000000DF
:1001200000000000000000000000000000000000CF
:1001300000000000000000000000000000000000BF
:1001400000000000000000000000000000000000AF
:10015000000000000000000000000000000000009F
:10016000000000000000000000000000000000008F
:10017000000000000000000000000000000000007F
:10018000000000000000000000000000000000006F
:10019000000000000000000000000000000000005F
:1001A000000000000000000000000000000000004F
:1001B000000000000000000000000000000000003F
:1001C00040EA01039B0703D009E008C9121F08C0D9
:1001D000042AFAD203E011F8013B00F8013B521E59
:1001E000F9D27047D2B201E000F8012B491EFBD2D0
:1001F00070470022F6E710B513460A460446194632
:10020000FFF7F0FF204610BD80B540F2080042F62F
:100210006451C2F20000C0F2000100F024F900B9FC
:1002200080BD02A006A1392200F092FB4653505F28
:1002300053554343455353203D3D206572720000A2
:100240004150502F6273705F64656275675F7561BE
:1002500072742E630000000000BE70472DE9F0416B
:1002600046F22018C4F20008B8F80000B8F82010D0
:1002700040F2400501EA0006B7B20024C2F20005D0
:1002800027FA04F0C00704D055F8241009B120461D
:1002900088470134102CF3D1A8F81060BDE8F08134
:1002A0000F4B1968EFF309821EF0100F08BF22ED03
:1002B000108A22E9F04FEFF30B8342F8043D0A6005
:1002C0004FF0100080F31188BFF34F8FBFF36F8F93
:1002D00001F040FE4FF0000080F3118801F054BAA5
:1002E00030030020B0B543F22404C4F20804002512
:1002F000C8200121257100F071F8257020780028B0
:10030000FCD1207840F00200207000BF20788007E8
:10031000FCD4002004F8020C14F8020C0028FBD1D5
:10032000012000F00BF84EF2BB420021C4F20102A2
:1003300001201170BDE8B04000F027B880B501225F
:10034000EFF3108182F3108840F2E002C2F2000263
:1003500032F810308BB94EF2FE3C42F6D453C4F260
:10036000010CC0F20003BCF800E033F8103043EA9F
:100370000E0343F42543ACF8003032F8103001335B
:1003800022F8103081F3108880BD0122EFF3108134
:1003900082F3108840F2E002C2F2000232F810301C
:1003A00023B132F81030013B22F8103032F810201F
:1003B0008AB94EF2FE3CC4F2010C42F6D452BCF8AB
:1003C0000030C0F2000232F8100043F4254222EA65
:1003D0000000ACF8000081F31088704740F238024A
:1003E000C2F20002136801FB00F04CF60021C3F6D4
:1003F0009A3148F63812C0F24102B1FBF3F1904253
:1004000007D24FF47A7200FB02F0B0FBF1F08008E3
:1004100008E08900B0FBF1F0904207D24FF47A7106
:1004200000FB01F008B100F082BB70474FF0FF30D5
:1004300000F07DBB7047022818BF704740F2D4001F
:1004400042F6E051C2F20000C0F20001AFF30080BA
:1004500080B545F25422C5F24F020260084601F011
:1004600013F9002080BD0A780123934013F0060F92
:1004700005D00B6CDB681B781B0700F1E0802DE9D1
:10048000F04748F20003C4F2110343EA0222D1E923
:100490000E364FF0000843628378C66223F00303F0
:1004A0005E1C86704E68026280F80080C161C0F8F0
:1004B000288016B943F002038370CF6A4EF2001C05
:1004C00007F01F034FF0010ECEF2000C0EFA03F3FB
:1004D0000CF180047E0991F8285044F82630BFF3CF
:1004E0004F8F46F2003AC4F2000ABFF36F8F5AF8FA
:1004F00027602A0126F480364AF827600CF54075FB
:100500005AF82760EA554A6940F2EC0902F01F06E2
:10051000C2F200090EFA06F6530949F827000F7CCB
:1005200044F82360BFF34F8FBFF36F8F5AF8223028
:100530003E0123F480334AF822305AF82230AE5478
:1005400049F82200CA690B7E02F01F060EFA06F671
:10055000570944F82760BFF34F8FBFF36F8F5AF8E6
:1005600022601B0126F480364AF822605AF8226085
:10057000AB5449F822004A6A91F8203002F01F0675
:100580000EFA06F6570944F82760BFF34F8FBFF302
:100590006F8F5AF822401B0124F480344AF822401D
:1005A0005AF82240AB5449F82200EFF310828EF340
:1005B000108844F204050B78C4F208054FF000449B
:1005C0002E6824FA03F326EA03032B602B6882F3D8
:1005D0001088026A82F80280026A82F80480026A45
:1005E00082F80980026A82F80A80026A82F80B8027
:1005F000026AA2F81A800A780EFA02F340F2F9327F
:10060000134202D0036A4024DC74036A06241C7778
:100610000B780EFA03F3134203D0026A4FF47843C7
:100620009382D1E90163CA684FEAC20242EA031227
:100630003EB1032E08BF42F04002F22602E0032240
:10064000ADE0E226036A02271A70026A002596715D
:100650000A6C936907EA4307082B036A08BF0A2755
:100660005F73066AD2E9013735721668DB0126F03E
:100670000106022EDEB267F345160AD1036AFF2790
:100680005F701268022A026A08BF46F01006D6712F
:1006900017E0036ADE71D268036A97785F70577853
:1006A0001E7807F0030706F0FC0637441F70D77862
:1006B0009F74DF79127807F0A30702F05C023A44D6
:1006C000DA710022C369C0E90322C0E90522D1F82A
:1006D00040E05B699EF800105AF8234003F01F05C4
:1006E00024F480344AF823405AF82340012404FAC1
:1006F00005F60CF5C0755B09BFF35F8F45F8236005
:100700004CF82360C369DB6A5AF8236026F480360C
:100710004AF823605AF8236003F01F0604FA06F62D
:100720005B09BFF35F8F45F823604CF82360C36912
:10073000DB695AF8236026F480364AF823605AF8B9
:10074000236003F01F0604FA06F65B09BFF35F8F10
:1007500045F823604CF82360C3695B6A5AF823604C
:1007600026F480364AF823605AF8236003F01F0607
:10077000B4405B09BFF35F8F45F823404CF823403A
:100780001C23076A63F39F01B970DEF8141044F666
:100790005513C5F24333C0E90131BDE8F0471046B7
:1007A000704780B5D0F820E09EF802C00CF07B03C3
:1007B0008EF80230837803F00303A2EB030C0B44A2
:1007C000026AC0E9033C937843F080039370827817
:1007D00002F00302022A05D10988006A41F47E4131
:1007E000C18102E00978006AC170002080BD00006C
:1007F00000F03AF800F06BFAFEE700001EF0040F7C
:100800000CBFEFF30880EFF30980014908470000AF
:10081000411C000010B51020EFF3118480F3118803
:1008200002F03CF830B14EF60450CEF200004FF02A
:100830008051016084F3118810BD4EF22000C4F293
:1008400001008179006843F2A012C2F20002C0F3F5
:10085000026052F8211021FA00F040F23801C2F291
:10086000000108607047000070B54EF6085040F275
:100870000004CEF200004FF47001C0F20004C0F892
:10088000801004600020FFF7D6FD00F065F801201D
:10089000FFF7D1FD206843F29811A0F5806080F346
:1008A0000A8840F20800C2F20000C0F20001FFF71F
:1008B000A0FC40F2000043F2C05140F20802C2F234
:1008C0000000C0F20001C0F20002FFF779FC40F224
:1008D000C01440F2C010C0F20004C0F20000001BBF
:1008E0008510012D06DB264656F8040B2044804770
:1008F000013DF9D1FFF7A1FFFFF7F4FC0320FFF75B
:100900001DFD40F610510020C4F208014FF6FF72A1
:1009100021F8102001300C28FAD10320FFF735FD13
:100920000320FFF70BFD0420C4F20E00002101603C
:1009300041608160C1600320FFF727FD0220FFF7BF
:100940007AFD00F0A9F80020BDE8704000F0A2B8E0
:1009500000BE00BFFEE700002DE9F0414EF2FE347C
:10096000C4F201044AF203504CF200152080C4F294
:1009700001050120A88000BFA8880028FCD147F20B
:1009800000010120C4F2000128808860086043F261
:10099000A01642F6005041F20022C2F20006C0F258
:1009A0003110C0F27A02C6E9000243F200604FF44F
:1009B0000041C0F26E10C6E902104CF20020C0F6F1
:1009C000EB304EF220073161C4F201077061B87953
:1009D000396856F82000C1F3026140F23808C84077
:1009E000C2F20008C8F8000000206075092087F8EE
:1009F000820094F8820018B994F88300800744D0EC
:100A000094F8820050B9012084F88200C8200121A6
:100A1000FFF7E4FC94F882000128FBD1002084F861
:100A2000830084F882000020B87400BF387F00077C
:100A3000FCD543F2021038810020B872387F80065E
:100A4000FCD50320287741F22120C2F20100386052
:100A50000520B871B879396856F82000C1F30261F1
:100A6000F022C840C8F8000042F20800C4F20000BA
:100A7000F12101710121017002714FF42540397497
:100A800087F832102080BDE8F0814FF47A70FFF7CC
:100A9000D1FCC8E770470000F0B583B048F24807C2
:100AA0000320C4F20007FFF749FC6FF0FF00386035
:100AB0004FF0FF3042F60C640290CDE900000021B7
:100AC0000122C0F20004684654F8213053B14D09A8
:100AD00001F01F0350F8256002FA03F326EA03032E
:100AE00040F8253001316029EED14EF280320021EC
:100AF000CEF2000250F8213007EB8106B36242F8D3
:100B0000213001310329F5D10320FFF73EFC46F2E5
:100B100000310020C4F2000154F820200AB141F84D
:100B200020200130602804BF03B0F0BDF4E7013895
:100B30000028FCD1704700002DE9F04704460088EA
:100B4000C8B34EF2BB4A00250FF27009C4F2010A85
:100B50004FF00108002600BF606859F8262000EB1E
:100B6000C500416891421FD100689AF8001000F05A
:100B7000B85008FA06F7B0F1807F07EA010007D104
:100B800090B90120FFF7DAFB9AF80000384306E03D
:100B900050B10120FFF7D2FB9AF80000B8438AF861
:100BA00000000120FFF7F1FB0136032ED4D120888D
:100BB00001358542CED3BDE8F08700BF02040000B6
:100BC000030400000404000080B54168022910D02D
:100BD000042918BF80BD00F1080140F20800C2F2EC
:100BE00000000122FFF7DDFD40F2AC30C2F2000050
:100BF00003E040F2AD30C2F200000121017080BD7F
:100C000010B582B040F2D000C2F20000016842F696
:100C1000DC530131016040F6854040F23C044FF066
:100C2000010CC0F200000BA1C0F200034FF480726F
:100C3000C2F20004CDE900C401F07CFD012804BF2C
:100C400002B010BD2068002102B0BDE8104000F0E5
:100C500016BE00BF64656275675F756172740000DF
:100C6000FFF7D2FA04A400BF204602F061F841F277
:100C7000883001F079F8F7E768656C6C6F20776F62
:100C8000726C640010B5044600F0C8FD2046BDE853
:100C90001040FFF7E5BF000080B582B0019040F240
:100CA0000800C2F2000001A90122FFF77AFD40F21C
:100CB000AD30C2F2000000BF01780029FCD0002155
:100CC0000170019802B080BD7047FFF7FDBF80B58D
:100CD00040F2D000C2F200000021016040F280002A
:100CE000C2F2000040F2880201704FF48070C2F23C
:100CF0000002012101F09AF940F28401C2F20001E0
:100D0000086018B90020002100F0B9FDFFF778FF56
:100D100001F0BEF8002080BDF0B581B00D4643F271
:100D2000901140F23036C2F20001C2F200060F68A4
:100D300031680446081D00F086FE601C16D1ADB176
:100D400043F26810C2F200004168326891608A681C
:100D50003368DA60336804335360326804328A607F
:100D60003168486101680131016020E03068E419B0
:100D700044600BD340F24030C2F20000006831689A
:100D8000043101B0BDE8F04000F0A2BE40F23830BE
:100D9000C2F2000000683168043100F099FE43F2AD
:100DA000E400C2F2000001688C4238BF046001B068
:100DB000F0BD00002DE9F047044600F0A6FE42F623
:100DC000B430C2F20000016840F2303701310160F6
:100DD000C2F20007396843F25C1A40F24836C2F2A8
:100DE000000AC2F2000651B1DAF8000000283DD135
:100DF0003868E16AC06A884298BF3C6036E03C606F
:100E00000068012832D10025701900F053FE143516
:100E1000642DF9D143F2B008C2F20008404600F058
:100E200049FE43F2C409C2F20009484600F042FEFE
:100E300043F2F800C2F2000000F03CFE43F27C10E6
:100E4000C2F2000000F036FE43F26810C2F2000069
:100E500000F030FE40F23830C2F20000C0F80080EE
:100E600040F24030C2F20000C0F8009042F6C030BC
:100E7000C2F200000168231D0131016042F6C43155
:100E8000C2F20001E06A0A68904288BF086000EB85
:100E9000800006EB80014A6861619568C4E902251B
:100EA0006B60936056F82010013146F8201000F076
:100EB00053FEDAF8000078B13868E16AC06A884207
:100EC0000AD24EF60450CEF200004FF0805101607D
:100ED000BFF34F8FBFF36F8FBDE8F08770B582B05F
:100EE00000F013FE43F29416C2F20006306850BBC5
:100EF00043F28804C2F20004204600F0DBFD43F216
:100F00009C05C2F20005284600F0D4FD40F23430C2
:100F1000C2F20000046040F24430C2F2000040F22D
:100F20006C2240F2E423056000250A20C2F2000290
:100F30000C21C2F20003009501F098F8306010B166
:100F400003A100F0BFFE02B0BDE8704000F004BE97
:100F5000546D72510000000070B5866B036C04463E
:100F600043B31546CAB1E0681A46FFF729F9E168AC
:100F7000206C2268091A9142E16003D2A1684042C4
:100F80000844E060A81EB0FA80F040093146002E07
:100F900018BF01210840361A0CE060681A46FFF7B6
:100FA0000FF9D4E90101226C10448842606001D33A
:100FB00020686060701CA06370BD000010B504461E
:100FC00090F85D00022808BF10BD012803D038B991
:100FD000206B00F0E7FD2046BDE8104000F0E2BDC8
:100FE00043F2454103A0C0F2000140F6D972FFF779
:100FF000AFFC00BF70785443422D3E75635374615B
:10100000746963616C6C79416C6C6F636174656465
:10101000203D3D202820282075696E74385F74209B
:10102000292032202900000042F6B83540F2483A23
:101030004EF6045843F27C1742F6B436C2F200056D
:10104000C2F2000ACEF200084FF08059C2F2000747
:10105000C2F20006286890B100F057FDF868C46835
:10106000201D00F0F0FC306801383060286801383D
:10107000286000F071FD2046FFF7A0FFEAE7DAF8EC
:101080000000022805D3C8F80090BFF34F8FBFF3CC
:101090006F8F00F003FDDDE72DE9F0470A9F8246E0
:1010A000089C386B984669B107F13403002600BFED
:1010B0008D5D9D551DB10F2E06F10106F8D1002161
:1010C00087F84310052C21D200EB8200DDF8249034
:1010D000043820F00706381DFC6200F0F6FC07F12A
:1010E000180000F0F2FCC4F10500396BB86130461D
:1010F000524643463F617F6200F0B2FAB9F1000FF9
:10110000386018BFC9F80070BDE8F08743F2454168
:1011100003A0C0F2000140F29632FFF719FC00BFB5
:1011200075785072696F72697479203C202835296E
:101130000000000080B543F26012C2F2000200BF5E
:10114000114612688242FBD34B68D0F804C001EB11
:10115000030E864503D19C440846C1F804C000EB49
:101160000C03934201D013460AE040F23C33C2F232
:1011700000031B689A4203D0D2E900326244426005
:101180008142036018BF086080BD8C46014641F86B
:1011900004CF9445006108D940F234309A42C2F23B
:1011A00000000AD29C450ED207E08069D21A824222
:1011B00009D240F24430C2F2000080B5006800F06D
:1011C00087FC002080BD0120704770B540F23432AA
:1011D000C2F2000212680646D2680D46D468201D8D
:1011E00000F031FC94F82400410704D400F0FA0028
:1011F00084F8240004E0204631462A4600F006F830
:10120000216A2046BDE870400847000070B50546D9
:10121000806914460E460144284600BF3346FFF756
:10122000B4FF48B1A869296A064428468847A869D6
:10123000224681192846F1E770BD0000F0B581B063
:10124000044601F025FB40F22C36C2F2000631685C
:10125000054688420ED240F23437C2F2000700BF82
:101260003868016841B1C0684FF0FF310068FFF78E
:10127000ACFFF5E7002007E040F24431C2F2000184
:101280000A68086001203A6020602846356001B095
:10129000F0BD000000BE00BFFEE7000084B040F2D9
:1012A000343843F294154EF60459C2F2000801ACEA
:1012B000C2F20005CEF20009EA4600BFD8F80000ED
:1012C000D0F800B0BBF1000F1ABFC0680668002656
:1012D00000F038FE2046FFF7B1FF019911B101F08F
:1012E00029FC83E00746BBF1000F08D0BE4206D8B8
:1012F00001F020FC30463946FFF767FF76E0BBF18E
:10130000000F01D0002208E040F24430C2F2000099
:1013100000680068B0FA80F042092868F11B00F00C
:1013200000FD01F007FC002860D14FF08050C9F8A3
:101330000000BFF34F8FBFF36F8F57E00198002875
:1013400054D4039E706910B1301D00F07CFB5046F0
:10135000FFF774FF01990139082947D80746DFE8EC
:1013600001F005052C1C3E05052C1C0096F82400F8
:10137000029BB16940F0010086F824001944304610
:101380003A46FFF702FF88B396F8240041071BD4C2
:1013900000F0FA0086F824001DE096F8240040F0E2
:1013A0000101029886F82410B06140B3C11930469B
:1013B0003A463B46FFF7E9FE18E096F8240000F0B5
:1013C000FE0086F8240011E00298B1693A46014413
:1013D0003046FFF71BFF316A3046884706E096F833
:1013E00024008107EBD4304600F0DCFB286821465E
:1013F000002200F0C9FF00287FF4A0AF5EE743F2AF
:10140000B04103A0C0F200014FF45D72FFF7A0FAF3
:101410002820707854696D65722D3E7854696D6529
:1014200072506572696F64496E5469636B73203ED4
:101430002030202900000000F0B581B0044600F003
:1014400064FB94F94560012E0EDB04F1240500BF16
:10145000286848B1284601F0F4FA08B100F0BBFC56
:1014600070B2013E0128F3DCFF2684F8456000F0ED
:1014700073FB00F04AFB94F94470012F0EDB04F17A
:10148000100500BF286848B1284601F0DAFA08B113
:1014900000F0A1FC78B2013F0128F3DC84F844603D
:1014A00001B0BDE8F04000F057BB0000F0B581B0DE
:1014B000044600F047FD40F23C31C2F200010868EA
:1014C00070BB40F2AE30C2F2000010F0070200F133
:1014D000070222F00702A0EB020303F5205304BF2A
:1014E00002464FF4205343F26010C2F2000000277E
:1014F000C0E90027D01820F00700A0F108030B6016
:1015000040E90277086843F2E0019B1AC2F2000149
:101510000B6043F2D801C2F20001C2E900030B6084
:1015200004F1080109294AD314F0070205D0093A49
:10153000914244D824F00701103101294FF00004F2
:101540003EDB43F2D806C2F200063268914237D839
:1015500043F26012C2F2000217687B688B4205D228
:101560003D681DB16B683A462F46F7E7874226D0A3
:10157000146838685B1A112B106006D3781842077C
:101580002ED143607960FFF7D5FD43F2E001786822
:101590003268C2F200010B68121A9A42326038BFF8
:1015A0000A6043F2EC02C2F20002136840F000400D
:1015B00000210834C7E90010581C106000E0002426
:1015C00001F0B8FA600702BF204601B0F0BD43F257
:1015D0001F0114A0C0F200014FF49772FFF7B8F991
:1015E00043F21F0102A0C0F20001EE22FFF7B0F9A2
:1015F00028202820282073697A655F7420292070AC
:10160000784E6577426C6F636B4C696E6B20292056
:101610002620282030783030303720292029203DDE
:101620003D20300028202820282073697A655F74C7
:10163000202920707652657475726E20292026202C
:10164000282073697A655F7420292028203078303B
:1016500030303720292029203D3D20300000000077
:10166000283140F8481D41F29521C0F200014FF0A9
:10167000807C22F00102C1636FF002010264C0F8B5
:1016800044C0C0E90913704770B50446FFF754FA27
:1016900040F2E80CEFF31080012181F31088C2F2D0
:1016A000000CDCF8001039B940F60351C4F208010F
:1016B00000220A7040220A70DCF800100131CCF8D8
:1016C000001080F31088208818B340F6000E002127
:1016D000C4F2080E606800EBC10250F83130526865
:1016E000DD034FEA1220D2B20BD50EEB801555F870
:1016F000226026F4803645F8226023F4803645F8CF
:1017000022600EEB8010013140F8223020888142A7
:10171000E0D30120EFF3108180F31088DCF80000A3
:1017200020B1DCF800000138CCF80000DCF8000043
:1017300038B940F60350C4F208000022027080223B
:10174000027081F3108870BDB0B584B00446806A21
:1017500040B1D0E900CED0E90253CDE900CECDE9C9
:10176000025300E06846E369D4F824C01B78E56AB8
:10177000C0E90032C0E90215E047A06A10B19DE857
:101780002E002EC004B0B0BD074801680A6802CA26
:1017900081F30B88B2E8F04F1EF0100F08BFB2ECD7
:1017A000108A82F3098870473003002088B14EF216
:1017B0000C00C4F20100B0F90010B1F1FF3F09DDE7
:1017C000BFF34F8F30BFBFF36F8F62B6BFF36F8F22
:1017D00072B6704780B54EF2FE32C4F20102B2F822
:1017E00000E04AF2025CCFF6FF7C0023A2F800C0C2
:1017F00003804EF425431380BFF34F8F30BFBFF3F8
:101800006F8F62B6BFF36F8F72B61388A2F800C0F5
:10181000018043F42540108080BD0000B0B540F247
:101820008404C2F2000420684FF0FF3100F07AFE19
:10183000012803D02068002100F021F840F2800048
:10184000C2F20000017801B1B0BD01210170FFF7C3
:101850003CFA40F2D005C2F2000500BF286801380A
:101860002860F1D0206800210022002300F0B8FC9D
:101870000128F3D02068002100F001F8EEE700BE57
:101880007047B0B5EFF303806FF35F20A0F1100550
:1018900040F2EC00C2F2000050F825008178036AA3
:1018A00001F00301022912BF5979198A6FF35F21F0
:1018B0001A79D40602F0380203D51C7FE40708BF6A
:1018C00040321C7904F0C7041C71436A0BB1FFF766
:1018D0003BFF46F20030C4F2000050F8251021F41E
:1018E000803140F8251050F82500B0BD10B582B009
:1018F000EFF3038040F2FC7101EA800046F2C02160
:10190000C4F20001425822F48032425040F2EC020C
:10191000C2F200024158104450F8404CA07800F048
:101920000302206A022A12BF4179018A6FF35F2104
:10193000A069019198B1606901A9FEF741FCA07806
:101940006169A26900F003000144101A6161A0619D
:101950000ED1606A60B120460021012203E0606A76
:1019600030B12046042202B0BDE81040FFF7ECBEC3
:1019700002B010BD10B5EFF303806FF35F20A0F14C
:10198000100440F2EC00C2F2000050F82400016A9A
:101990008A7802F07B028A70416A19B10021022222
:1019A000FFF7D2FE46F20030C4F2000050F82410D7
:1019B00021F4803140F8241050F8240010BDEFF3DA
:1019C000038040F2FC7101EA800046F2C021C4F2BB
:1019D0000001425822F48032425040F2EC02C2F23E
:1019E00000024158104450F8400CC1694A6B01692B
:1019F000C2B9C1B1817801F00302C168022A05D1E0
:101A00000988026A41F47E41D18102E00978026AC4
:101A1000D1708178026901F00303D11AC2680161B3
:101A20001A44C26071B9016A8A7802F07B020432FA
:101A30008A70416A00294FF00001C1601CBF8022FA
:101A4000FFF782BE7047D0E901320169D1F804C0C6
:101A50009A608445536008BF4A60002202610868AA
:101A6000013808600868704742F6C853C2F20003A4
:101A7000036042F6C830C2F20000086080201060A7
:101A8000704743F22803C2F20003036042F6286065
:101A9000C2F20000086080201060704780B572B606
:101AA00000F050FA0120FFF781FE62B6BDE88040E9
:101AB00001F040B84FF0FF31024642F8081F002104
:101AC0004260C0E903220160704700210161704754
:101AD00080B5D1F800C01CF1010207D000F1080266
:101AE0009646526813686345FAD903E0D0F810E0CF
:101AF000DEF804204A609160C1F808E0CEF80410D6
:101B0000086101680131016080BD1021EFF311808F
:101B100081F3118842F6B031C2F200010A68531C09
:101B20000B605AB940F2DC01C2F2000108604EF6C7
:101B30000450CEF200000068C00500D1704743F2A7
:101B4000F14043F23751C0F20000C0F2000140F210
:101B5000A442FEF7FDFE000042F6B030C2F20000E3
:101B6000016859B10139016018BF704740F2DC00CB
:101B7000C2F20000006880F31188704743F23751C9
:101B800003A0C0F2000140F2AD42FEF7E1FE00BF4B
:101B90007578437269746963616C4E657374696EBC
:101BA00067000000B0B528B3044650F8040C0028C4
:101BB00021D5A4F10805296849BB20F0004044F86C
:101BC000040C00F0BFF943F2D801C2F2000154F84E
:101BD000040C0A68104408602846FFF7ABFA43F289
:101BE000F000C2F20000016801310160BDE8B040C0
:101BF00000F0A0BFB0BD42F6AC7043F21F01C0F2CE
:101C00000000C0F2000140F24112FEF7A1FE43F2D3
:101C10001F0103A0C0F200014FF4A172FEF798FE6D
:101C200070784C696E6B2D3E70784E657874467294
:101C30006565426C6F636B203D3D20300000000005
:101C4000806910F8020C022808BFFFF79DBD042828
:101C500038BF704743F2375103A0C0F200014FF480
:101C60007E72FEF775FE00BF75635356434E756D69
:101C7000626572203C3D20330000000040F23800D5
:101C8000C2F20000006844F6D351C1F26201A0FB29
:101C900001014FF0FF3000EB91110020B0EB116F0C
:101CA00018BF70474EF21002CEF2000251604EF69D
:101CB0002351CEF20001F0230B70906007201060DA
:101CC00070470000B0B500B3D1B143F20C1E4FF025
:101CD000000C0023C2F2000E002200BF0EEB030432
:101CE0006568A8420DD022B92268002A18BF644650
:101CF00022460833502BF1D1002A18BFC2E9001048
:101D0000B0BD2246C2E90010B0BD43F2D02043F27C
:101D10008321C0F20000C0F2000140F61532FEF748
:101D200017FE70B515460E460446FFF7EEFE94F812
:101D30004400FF2804BF002084F8440094F84500C4
:101D4000FF2804BF002084F84500FFF705FFA06BC3
:101D500028B904F1240031462A4600F060F82046F4
:101D6000BDE87040FFF768BB80B578B142F6BC3182
:101D7000C2F200010A68AAB90A6801320A600021A9
:101D8000FEF7CAFF00F0D6FE00B180BD4EF604504B
:101D9000CEF200004FF080510160BFF34F8FBFF3D0
:101DA0006F8F80BD43F21A4043F24541C0F20000FC
:101DB000C0F200014FF4A462FEF7CAFD43F2E8014D
:101DC000C2F200010968016043F29011C2F2000101
:101DD00009684160704743F29C10C2F20000012183
:101DE0000160704710B570B10C4640F23031C2F25C
:101DF000000109681831FFF76BFE20460121BDE89C
:101E00001040FEF789BF43F28C4043F24541C0F2D7
:101E10000000C0F2000140F64B42FEF799FD10B5FC
:101E200050B340F2303CC2F2000C0346D0F804E05C
:101E3000DCF80000002AC0F81CE0DEF80800DCF83E
:101E400000402062DCF8004004F118044460DCF833
:101E5000000000F11800CEF80800DCF800008362F2
:101E6000186818BF4FF0FF31441C084611461C602B
:101E7000BDE81040FEF750BF43F28C4043F24541AD
:101E8000C0F20000C0F2000140F68142FEF760FDA2
:101E9000B0B586B0002505A804A903AACDE904556C
:101EA000FFF7E2FDDDE90320059C1FA10023CDE93A
:101EB000005041F22900C0F20000029400F068FCDA
:101EC00043F2DC01C2F20001086028B300F0F2FE28
:101ED00001280AD001301FD143F2454114A0C0F2BD
:101EE00000014FF40262FEF733FD43F2E401C2F257
:101EF00000014FF0FF32012080F310880A6043F2A6
:101F00005C11C2F20001086043F29010C2F20000BE
:101F10000021016000F06CF843F26C50C0F2000048
:101F2000006806B0B0BD00BF49444C450000000049
:101F30007852657475726E20213D2028202D312045
:101F40002900000042F6BC30C2F2000001680131F5
:101F50000160704742F6BC30C2F20000006830B148
:101F600043F29C10C2F2000001210160704743F26D
:101F70009C10C2F20000002142F6C43C0160C2F293
:101F8000000CDCF8001040F2483301EB8102C2F291
:101F9000000353F8220003EB820228B9B1B152F8D2
:101FA000140D01390028F9D05068436802F1080087
:101FB0008342536001D1D3685360D86840F2303215
:101FC000C2F200021060CCF80010704743F24541A5
:101FD00003A0C0F2000140F63342FEF7B9FC00BF97
:101FE0007578546F705072696F726974790000006F
:101FF0004EF62250CEF20000F0210170FFF73EFEB7
:102000004EF63470CEF20000016841F040410160AC
:1020100062B6BFF36F8FEFF3148C2CF0040C8CF3CB
:102020001488BFF36F8F02DF00BEFDE7B0B582B04A
:1020300080B10D4681420DD814464FF0000C0021AE
:1020400000222346CDF800C000F010F82046A5631A
:1020500002B0B0BD43F2BC2043F28321C0F20000C5
:10206000C0F2000140F24732FEF772FC10B582B0B8
:102070003BB3D0B11C4601B9BAB901B1AAB14823EA
:102080000193019B482B25D1019B012384F8463005
:10209000002908BF2246C4E90F0120460121226021
:1020A00000F038F8204602B010BD43F2C42043F2DD
:1020B0008321C0F20000C0F200014FF4D072FEF79D
:1020C00047FC43F283210FA0C0F2000140F27712D7
:1020D000FEF73EFC43F2832103A0C0F2000140F270
:1020E0008912FEF735FC00BF7853697A65203D3DC3
:1020F0002073697A656F66282051756575655F7410
:102100002029000070785374617469635175657596
:102110006500000070B5002844D00446C06BC0B311
:102120000E46216CA0FB010199BBFFF7EEFCD4E940
:102130000F0122680025A56301FB0023013800FB85
:102140000120C4E90123E060FF2084F8440084F802
:10215000450004F110004EB1FFF7ACFC04F124007F
:10216000FFF7A8FCFFF7F8FC012070BD016800290B
:10217000F8D000F066FC0028F4D04EF60450CEF201
:1021800000004FF080510160BFF34F8FBFF36F8F9E
:10219000E8E743F2832109A0C0F2000140F2631294
:1021A000FEF7D6FB43F2CF2043F28321C0F20000BA
:1021B000C0F200014FF49772FEF7CAFB78526574C3
:1021C00075726E20213D202820282028204261732E
:1021D00065547970655F74202920302029202900FA
:1021E0002DE9F04F85B00028049200F09D809946BB
:1021F0001546044619B9206C002840F0B980B9F1A1
:10220000020F03D1E06B012840F0A680019100F09D
:102210002DFB10B9002D40F09380FFF776FCA06BEA
:10222000B9F1020F59D0E16B884256D304F110077F
:10223000012002AE4FF0000A04AD00BF049900294E
:1022400066D0C0071CBF3046FFF7B8FDFFF784FC1F
:10225000FFF778FEFFF759FC94F84400FF2808BF09
:1022600084F844A094F84500FF2808BF84F845A0EE
:10227000FFF772FC3046294600F00EFA00284AD1DA
:10228000FFF743FCD4F838B0D4F83C80FFF764FC87
:10229000C34515D104993846FFF7A4FD2046FFF742
:1022A000CBF800F047FC80B94EF60450CEF20000A7
:1022B0004FF080510160BFF34F8FBFF36F8F04E089
:1022C0002046FFF7B9F800F035FCFFF71EFCA06BC5
:1022D000E16B88424FF00000B0D2019920464A4697
:1022E000FEF73AFE54F8240F70B1204600F0A9FB27
:1022F00050B14EF60450CEF200004FF08051016014
:10230000BFF34F8FBFF36F8FFFF726FC012008E06C
:10231000FFF722FC04E02046FFF78EF800F00AFCED
:10232000002005B0BDE8F08F43F2CF2043F28321B7
:10233000C0F20000C0F2000140F27D32FEF708FB5F
:1023400043F2B70043F28321C0F20000C0F2000163
:1023500040F28232FEF7FCFA43F20A1043F2832184
:10236000C0F20000C0F2000140F27F32FEF7F0FA46
:1023700043F2A71043F28321C0F20000C0F2000133
:1023800040F27E32FEF7E4FA2DE9F04F83B00028E8
:10239000029200F0A28016468946044619B9206CC4
:1023A000002840F0B28000F061FA10B9002E40F031
:1023B000A080FFF7AAFBD4F838A0BAF1000F28D00C
:1023C000226C52B1D4E902011144E160814224BF80
:1023D0002168E1604846FDF7F3FEAAF10100A06321
:1023E00054F8100F70B1204600F02BFB50B14EF6A0
:1023F0000450CEF200004FF080510160BFF34F8FC8
:10240000BFF36F8F0124FFF7A7FB204603B0BDE8A1
:10241000F08F04F1240801206F464FF0000B02AE4C
:102420000299002955D0C0071CBF3846FFF7C6FCEB
:10243000FFF792FBFFF786FDFFF767FB94F8440078
:10244000FF2808BF84F844B094F84500FF2808BF6F
:1024500084F845B0FFF780FB3846314600F01CF9A0
:1024600060B12046FEF7E8FF00F064FBFFF74DFB8C
:10247000A56BFFF771FB1DBB2DE000BFFFF745FB10
:10248000A56BFFF769FB2DB12046FEF7D5FF00F0E5
:1024900051FB15E002994046FFF7A4FC2046FEF7E9
:1024A000CBFF00F047FB58B94EF60450CEF20000C7
:1024B0004FF080510160BFF34F8FBFF36F8F00BFAC
:1024C000FFF723FBD4F838A00020BAF1000FA7D003
:1024D00076E7002497E7002497E743F25E2043F273
:1024E0008321C0F20000C0F2000140F29C52FEF7CE
:1024F0002FFA43F2B70043F28321C0F20000C0F28A
:10250000000140F2A552FEF723FA43F2571043F2BE
:102510008321C0F20000C0F200014FF4B462FEF764
:1025200017FA00002DE9F04F83B00028029100F067
:102530008E800446006C002840F095800D4600F027
:1025400095F910B9002D40F09A80FFF7DEFAA16BE3
:10255000D1B1481EA06354F8100F70B1204600F0AE
:1025600070FA50B14EF60450CEF200004FF0805198
:102570000160BFF34F8FBFF36F8F0124FFF7ECFAB9
:10258000204603B0BDE8F08F4EF6045904F124084C
:1025900001206E464FF0000B02AFCEF200094FF063
:1025A000805A00BF029900294DD0C0071CBF304699
:1025B000FFF704FCFFF7D0FAFFF7C4FCFFF7A5FA1A
:1025C00094F84400FF2808BF84F844B094F845000C
:1025D000FF2808BF84F845B0FFF7BEFA30463946F9
:1025E00000F05AF860B12046FEF726FF00F0A2FA8C
:1025F000FFF78BFAA56BFFF7AFFAEDB925E000BF47
:10260000FFF783FAA56BFFF7A7FA2DB12046FEF777
:1026100013FF00F08FFA0FE002994046FFF7E2FB4C
:102620002046FEF709FF00F085FA28B9C9F800A096
:10263000BFF34F8FBFF36F8FFFF767FAA16B0020D7
:102640000029AFD085E7002498E7002498E743F2FB
:102650005E2043F28321C0F20000C0F2000140F28C
:102660002E62FEF775F943F26A2043F28321C0F22D
:102670000000C0F2000140F23262FEF769F943F255
:10268000B70043F28321C0F20000C0F2000140F223
:102690003762FEF75DF9000070B568B30D46B9B357
:1026A0000446FFF732FA43F2901EC2F2000EDEF843
:1026B000003029684A1C16D043F2E80CD4E9000225
:1026C000C2F2000CDCF80060864201D093420CD2CA
:1026D0009A1A914209D9881A2860DCF80000206013
:1026E000DEF800006060002402E000200124286081
:1026F000FFF732FA204670BD43F2984043F245415D
:10270000C0F20000C0F2000140F62C52FEF720F9A2
:1027100043F2454103A0C0F2000140F62D52FEF7FE
:1027200017F900BF70785469636B73546F57616910
:10273000740000002DE9F04F83B0074690009846E2
:1027400015468946FEF7B2FEE0B106466020FEF768
:10275000ADFEA0B1DDE90CBA60210446FDF749FDEC
:10276000384649462A4643462663CDE900BA0294D4
:10277000FEF792FC2046FEF71DFB012004E03046E8
:10278000FFF710FA4FF0FF3003B0BDE8F08F000004
:102790002DE9F04786B0DDF83C90B9F1000F27D065
:1027A000109E76B30446602004900498602831D1CE
:1027B00004980F46DDF838A030466021984615464B
:1027C000FDF717FD022086F85D0005A8C6F83090D9
:1027D000CDE900A0204639462A4643460296FEF738
:1027E0005BFC3046FEF7E6FA059806B0BDE8F087D8
:1027F00043F2454118A0C0F2000140F24322FEF727
:10280000A7F843F245410FA0C0F200014FF4117246
:10281000FEF79EF843F2454103A0C0F200014FF4D9
:102820001372FEF795F800BF7853697A65203D3D35
:102830002073697A656F6628205443425F742029AB
:102840000000000070785461736B427566666572B3
:1028500020213D2030000000707578537461636B57
:1028600042756666657220213D20300043F25C109F
:10287000C2F20000006848B142F6BC30C2F200006B
:102880000068B0FA80F040094000704701207047AE
:1028900043F29010C2F20000006870472DE9F04F3B
:1028A00081B042F6BC30C2F20000006840B143F291
:1028B000F400C2F200000168013101600020B1E0C3
:1028C00043F29010C2F20000016843F2E40211F1F9
:1028D000010BC2F20002C0F800B021D340F2383040
:1028E000C2F2000001680968002940F09E8040F2B1
:1028F0004033C2F2000301681F680760196043F2A9
:10290000E801C2F200010B6801330B60016809683D
:1029100019B10068C068006801E04FF0FF30106036
:10292000106840F2303E40F248388345C2F2000E53
:10293000C2F2000801D2002062E040F2383AC2F24E
:10294000000ADAF800000068002855D042F6C439C1
:10295000C2F20009002000BFDAF80040E468E6682F
:10296000374657F8044FA34541D3D6E90215746999
:1029700062688D60BA42696008BF6560216801398C
:102980002160B46A7CB1D6E90715D4F804C006F119
:10299000180294458D60696008BF65600021B162CE
:1029A000216801392160F46AD9F800108C4288BF8F
:1029B000C9F8004004EB840108EB8102556872619C
:1029C000AB68C6E902535F60AF6058F8212001325E
:1029D00048F82120DEF80010C96ADAF800208C429D
:1029E00088BF012011680029B6D14FF0FF3443F2AF
:1029F000E402C2F2000202E04FF0FF340020146053
:102A0000DEF80010C96A01EB810158F82110012994
:102A100088BF012043F29C11C2F20001096800291D
:102A200018BF012001B0BDE8F08F43F2D72043F278
:102A30004541C0F20000C0F2000140F6F422FDF76B
:102A400087FFB0B5C068C068002867D0D0E9071319
:102A5000826A00F1180CD2F804E08B605960002102
:102A6000E64508BF5360816211680139116042F682
:102A7000BC31C2F20001096889B143F2F801C2F227
:102A800000010A684B6801329D688162C0E9073520
:102A9000C5F804C0C3F808C00A60C26A2DE0D0E9D6
:102AA0000213426900F1040CD2F804E08B60E645A1
:102AB000596008BF5360116842F6C4330139116090
:102AC000C2F20003C26A196840F2483E8A4288BFD7
:102AD0001A6002EB8201C2F2000E0EEB81035C6809
:102AE0004361A568C0E90245C5F804C0C4F808C040
:102AF0005EF8210001304EF8210040F23030C2F281
:102B000000000068C06A824291BF002043F29C111D
:102B1000C2F20001012088BF0860B0BD43F2E0307E
:102B200043F24541C0F20000C0F2000140F6B1425C
:102B3000FDF70EFF2DE9F04F81B042F6BC34C2F232
:102B400000042068002800F0A880FEF7DEFF20685F
:102B500001382060206830B10024FEF7FDFF2046D8
:102B600001B0BDE8F08F42F6B430C2F20000006858
:102B70000028F1D043F2F80BC2F2000BDBF8001092
:102B800043F29C180029C2F2000863D042F6C43A0E
:102B900040F2483340F230394FF0000EC2F2000AE2
:102BA000C2F20003C2F200094FF0010CDBF80C1076
:102BB000CD68AF6AD5E907167C6805F11802944222
:102BC0008E60716008BF7E60C5F828E039682E1DF0
:102BD000013939606F69D5E902217C68B44291609E
:102BE0004A6008BF7960396801393960EF6ADAF8FC
:102BF00000108F4288BFCAF8007007EB870103EB13
:102C0000810254686A61A068C5E902404660A66016
:102C100053F82100013043F82100D9F80000C06AC0
:102C2000874288BFC8F800C0DBF800000028BDD18B
:102C300040F23830C2F200000168096819B100683A
:102C4000C068006801E04FF0FF3043F2E401C2F2D7
:102C50000001086043F2F404C2F20004256855B193
:102C6000012600BFFFF71AFE08B1C8F80060013D59
:102C7000F8D100202060D8F8000000283FF46CAFA5
:102C80004EF60450CEF200004FF080510160BFF3C9
:102C90004F8FBFF36F8F01245FE743F2EF3043F2B2
:102CA0004541C0F20000C0F2000140F69302FDF77A
:102CB0004FFE000080B586B0FEF710F943F2941085
:102CC000C2F20000006808B30020CDE9040005A8A6
:102CD00004A903AAFEF7D5FEDDE903200321DDF8F0
:102CE00014C00023CDE9001041F29D20C0F2000085
:102CF0000BA1CDF808C0FFF74BFD43F29811C2F2CB
:102D00000001086010B1012006B080BD43F2B0415F
:102D100005A0C0F2000140F21912FDF719FE00BF34
:102D2000546D7220537663007852657475726E002C
:102D3000014A024900F004B8990C0000000000208C
:102D40002DE9F04116460F460446002503E03946BA
:102D5000B047641C6D1C20780028F8D12846BDE8D7
:102D6000F0810000070000000200000000000000E9
:102D7000000000000C000000000000000C0000003B
:102D8000010000000C000000020000000C00000028
:102D9000030000000000000000000000C90B00005C
:102DA00000000000A82D000000000000010000004D
:102DB00000000000040000200F000000FFFF0000E2
:102DC000000000000000000000000000FFFF000005
:102DD00000000000010002000800100000000000D8
:102DE00004000000EC2D00000000000000000100C5
:102DF00008010000000001000003000000000105C0
:102E00000D060000000001050E060000AA010000EA
:102E1000AB010000AC010000AD01000000000000AB
:102E200000000000000000000000000000000000A2
:102E30000000000000000000000000000000000092
:102E40000000000000000000000000000000000082
:102E50000000000000000000000000000000000072
:102E60000000000000000000000000000000000062
:102E70000000000000000000000000000000000052
:102E80000000000000000000000000000000000042
:102E90000000000000000000000000000000000032
:102EA0000000000000000000000000000000000022
:102EB0000000000000000000000000000000000012
:102EC0000000000000000000000000000000000002
:102ED00000000000000000000000000000000000F2
:102EE00000000000000000000000000000000000E2
:102EF00000000000000000000000000000000000D2
:102F000000000000000000000000000000000000C1
:102F100000000000000000000000000000000000B1
:102F200000000000000000000000000000000000A1
:102F30000000000000000000000000000000000091
:102F40000000000000000000000000000000000081
:102F50000000000000000000000000000000000071
:102F60000000000000000000000000000000000061
:102F70000000000000000000000000000000000051
:102F8000000000000000000000000000007C0000C5
:102F90000000082000000008008000000000082059
:102FA0000000000800000000000000202820282069
:102FB000282070784C696E6B2D3E78426C6F636B85
:102FC00053697A652029202620282028202820736C
:102FD000697A655F74202920312029203C3C202813
:102FE00020282073697A656F66282073697A655F87
:102FF000742029202A202820282073697A655F748C
:103000002029203820292029202D2031202920295D
:10301000202920213D2030202920213D203000443E
:103020003A2F52422F52425F50726F6A6563742F7B
:1030300072612F6177732F4672656552544F532F1B
:103040004672656552544F532F536F757263652FE7
:10305000706F727461626C652F4D656D4D616E6746
:103060002F686561705F342E63002128202820704E
:103070007851756575652D3E706348656164203DC6
:103080003D20302029202626202820707851756583
:1030900075652D3E752E7853656D6170686F72652C
:1030A0002E784D75746578486F6C64657220213D8B
:1030B00020302029202900212820282078546173DD
:1030C0006B4765745363686564756C6572537461AE
:1030D00074652829203D3D20282028204261736501
:1030E000547970655F7420292030202920292026FA
:1030F00026202820785469636B73546F5761697474
:1031000020213D2030202920290021282028207836
:10311000436F7079506F736974696F6E203D3D2005
:103120002820282042617365547970655F742029D6
:103130002032202920292026262028207078517529
:103140006575652D3E75784C656E67746820213D08
:1031500020312029202900212820282028207076AD
:103160004275666665722029203D3D203020292069
:10317000262620282028207078517565756520291D
:103180002D3E75784974656D53697A6520213D201F
:1031900028205542617365547970655F7420292039
:1031A00030552029202900212820282070764974B4
:1031B000656D546F5175657565203D3D2030202942
:1031C000202626202820707851756575652D3E755E
:1031D000784974656D53697A6520213D2028205512
:1031E00042617365547970655F74202920305520E1
:1031F00029202900212820282070764275666665DE
:1032000072203D3D2030202920262620282070785D
:1032100051756575652D3E75784974656D53697A8C
:103220006520213D202820554261736554797065E1
:103230005F7420292030552029202900282063543C
:10324000784C6F636B202920213D2028202820699D
:103250006E74385F742029203132372029002820ED
:1032600070785175657565202900707851756575A0
:10327000652D3E75784974656D53697A65203D3DCD
:10328000203000443A2F52422F52425F50726F6AF0
:103290006563742F72612F6177732F467265655273
:1032A000544F532F4672656552544F532F536F75C9
:1032B0007263652F71756575652E63007848616E60
:1032C000646C650070784E65775175657565007042
:1032D00078517565756500282028202820282070E1
:1032E0007844656C617965645461736B4C6973747F
:1032F00020292D3E75784E756D6265724F66497452
:10330000656D73203D3D20282055426173655479D9
:1033100070655F74202920302029203F2028202834
:103320002042617365547970655F742029203120D3
:1033300029203A202820282042617365547970653D
:103340005F74202920302029202920290075784900
:103350006E646578546F436C656172203C2028313F
:1033600029007578496E646578546F5761697420D7
:103370003C20283129007578496E646578546F4E79
:103380006F74696679203C2028312900785469637C
:103390006B436F756E74203D3D2028205469636B2C
:1033A000547970655F742029203000282028202659
:1033B000282070785443422D3E784576656E744CD3
:1033C0006973744974656D202920292D3E707843F6
:1033D0006F6E7461696E65722029203D3D2030005A
:1033E0007078556E626C6F636B6564544342007510
:1033F000785363686564756C657253757370656E38
:1034000064656420213D202820554261736554790C
:1034100070655F74202920305500757853636865A6
:1034200064756C657253757370656E646564203D78
:103430003D2028205542617365547970655F742082
:103440002920305500443A2F52422F52425F507289
:103450006F6A6563742F72612F6177732F4672658F
:103460006552544F532F4672656552544F532F5334
:103470006F757263652F7461736B732E630078547C
:1034800061736B546F526573756D65007078457626
:10349000656E744C69737400707854696D654F750E
:1034A0007400785461736B546F4E6F746966790061
:1034B000443A2F52422F52425F50726F6A656374D2
:1034C0002F72612F6177732F4672656552544F5387
:1034D0002F4672656552544F532F536F7572636553
:1034E0002F74696D6572732E63007854696D65720F
:1034F000002828285343425F54797065202A2920E8
:10350000282830784530303045303030554C29202F
:103510002B20307830443030554C2920292D3E491D
:10352000435352202620283078314646554C2029D6
:1035300029203D3D203000443A2F52422F52425F15
:1035400050726F6A6563742F72612F6673702F7388
:1035500072632F726D5F6672656572746F735F70F0
:103560006F72742F706F72742E630000040000007D
:1035700000000505352E352E30004275696C74202B
:10358000776974682052656E657361732041647653
:10359000616E63656420466C657869626C65205372
:1035A0006F667477617265205061636B6167652037
:1035B00076657273696F6E20352E352E30000000EF
:0835C00000000000400035008E
:020000040100F9
:10A10000FFFFFFFFFFFFFFFFFFFFFFFFFFFFFFFF5F
:10A11000FFFFFFFFFFFFFFFFFFFFFFFFFFFFFFFF4F
:10A12000FFFFFFFFFFFFFFFFFFFFFFFFFFFFFFFF3F
:10A13000FFFFFFFFFFFFFFFFFFFFFFFFFFFFFFFF2F
:10A14000FFFFFFFFFFFFFFFFFFFFFFFFFFFFFFFF1F
:10A15000FFFFFFFFFFFFFFFFFFFFFFFFFFFFFFFF0F
:10A16000FFFFFFFFFFFFFFFFFFFFFFFFFFFFFFFFFF
:10A17000FFFFFFFFFFFFFFFFFFFFFFFFFFFFFFFFEF
:020000040100F9
:10A20000FFFDFFFFFFFFFFFFFFFFFFFFFFFFFFFF60
:10A21000FFFFFFFFFFFFFFFFFFFFFFFFFFFFFFFF4E
:10A22000FFFFFFFFFFFFFFFFFFFFFFFFFFFFFFFF3E
:10A23000FFFFFFFFFFFFFFFFFFFFFFFFFFFFFFFF2E
:10A24000FFFFFFFFFFFFFFFFFFFFFFFFFFFFFFFF1E
:10A25000FFFFFFFFFFFFFFFFFFFFFFFFFFFFFFFF0E
:10A26000FFFFFFFFFFFFFFFFFFFFFFFFFFFFFFFFFE
:10A27000FFFFFFFFFFFFFFFFFFFFFFFFFFFFFFFFEE
:10A28000F8F8FFFFFFFFFFFFFFFFFFFFFFFFFFFFEC
:10A29000FFFFFFFFFFFFFFFFFFFFFFFFFFFFFFFFCE
:10A2A000FFFFFFFFFFFFFFFFFFFFFFFFFFFFFFFFBE
:10A2B000FFFFFFFFFFFFFFFFFFFFFFFFFFFFFFFFAE
:10A2C000FFFFFFFFFFFFFFFFFFFFFFFFFFFFFFFF9E
:10A2D000FFFFFFFFFFFFFFFFFFFFFFFFFFFFFFFF8E
:10A2E000FFFFFFFFFFFFFFFFFFFFFFFFFFFFFFFF7E
:10A2F000FFFFFFFFFFFFFFFFFFFFFFFFFFFFFFFF6E
:04000005000007F1FF
:00000001FF
