:020000040000FA
:1000000088AE0120A5190000991200009907000090
:100010009907000099070000990700009907000060
:10002000000000000000000000000000B119000006
:100030009907000000000000DD120000C91900004F
:10004000E12E0000B32F0000692F0000772E000082
:100050004F2D0000332C00000000000000000000C5
:100060000000000000000000000000000000000090
:100070000000000000000000000000000000000080
:100080000000000000000000000000000000000070
:100090000000000000000000000000000000000060
:1000A0000000000000000000000000000000000050
:1000B0000000000000000000000000000000000040
:1000C0000000000000000000000000000000000030
:1000D0000000000000000000000000000000000020
:1000E0000000000000000000000000000000000010
:1000F0000000000000000000000000000000000000
:1001000000000000000000000000000000000000EF
:1001100000000000000000000000000000000000DF
:1001200000000000000000000000000000000000CF
:1001300000000000000000000000000000000000BF
:1001400000000000000000000000000000000000AF
:10015000000000000000000000000000000000009F
:10016000000000000000000000000000000000008F
:10017000000000000000000000000000000000007F
:10018000000000000000000000000000000000006F
:10019000000000000000000000000000000000005F
:1001A000000000000000000000000000000000004F
:1001B000000000000000000000000000000000003F
:1001C00040EA01039B0703D009E008C9121F08C0D9
:1001D000042AFAD203E011F8013B00F8013B521E59
:1001E000F9D27047D2B201E000F8012B491EFBD2D0
:1001F00070470022F6E710B513460A460446194632
:10020000FFF7F0FF204610BD00F0004230F0004044
:100210000AD0C10D01F56071C0F3160042EA015128
:10022000C20840071143704700200146704730B5AF
:100230000B46014600202022012409E021FA02F5A4
:100240009D4205D303FA02F5491B04FA02F528443E
:10025000151EA2F10102F1DC30BD2DE9F05F05466B
:10026000002092469B4688460646814640241BE075
:10027000284641464746224600F0E7F953465A468B
:10028000C01A914110D311461846224600F0CEF90B
:100290002D1A67EB01084F4622460120002100F08D
:1002A000C5F917EB00094E41201EA4F10104DFDC63
:1002B000484631462A464346BDE8F09F2DE9FE4FA9
:1002C000804681EA0300C00F0C46009021F00041F7
:1002D00023F00045B8EB0200A94105D24046214673
:1002E00090461C460B46024623F00040104347D080
:1002F000270DC7F30A00C3F30A510290401A019078
:1003000040286BDAC3F3130040F4801B0098924638
:1003100020B10023D2EB030A63EB0B0B0198594683
:10032000C0F14002504600F081F906460D465046A5
:100330005946019A00F099F910EB08006141002438
:1003400087EA115284EAE7731A4340D0009A62B3F5
:10035000019A012A4FEA075215DC001B61EB0201EA
:100360004FF0004202EA0752CDE90042001C41F57D
:10037000801132462B4600F099F903B0BDE8F08FAA
:1003800040462146F9E7001B61EB0201001C41F5E4
:10039000801300185B412018A2F5001747EB0301FA
:1003A00040EAD570B6196D4111E06D084FEA360686
:1003B00045EAC0754FEA0752001B61EB0201001CC1
:1003C00041F5801149084FEA300000195141324689
:1003D0002B4603B0BDE8F04F00F059B90098012258
:1003E00040000023D0EB020263EBE073009821464B
:1003F0004FEAE074B8EB000061EB0401E9E783F039
:1004000000435BE781F0004158E72DE9FE4F81EAA8
:10041000030404F0004421F0004100944FF0000B6D
:1004200023F0004350EA01045ED052EA03045BD09B
:10043000C3F30A54C1F30A552C44A4F2F3340194D3
:10044000A0FB0254C1F3130141F48011C3F3130361
:1004500043F4801301FB024400FB034E840A970A15
:1004600044EA815447EA8357A4FB076802958D0A42
:1004700005FB07854FEA932C04FB0C542705029DCE
:100480004FEA065847EA1637B5EB08056EEB070C3E
:10049000870E920E47EA811742EA8312A7FB0201F8
:1004A000B6EB0B0164EB00042B0D43EA0C335E1832
:1004B00044EB1C50DA465146E7FB0201C5F3130436
:1004C0004FEA0B3343EA14534FEA0432019C43EAE8
:1004D0000603A4F10C040294009CCDE900B400F0E2
:1004E000E5F803B0BDE8F08F00200146F9E72DE9FB
:1004F000F04D81EA030404F0004B21F0004514465E
:100500004FF0000A23F0004150EA050220D054EADF
:1005100001021DD0C5F30A570246C5F31303C1F308
:100520001300C1F30A5640F4801543F48013A7EB7F
:100530000608101BD64608F2FD3873EB050002D3FF
:1005400008F1010801E092185B41B8F1000F03DAED
:1005500000200146BDE8F08D00204FF480110646D2
:1005600084460EE0171B73EB050705D3121B63EBE4
:10057000050306434CEA010C49084FEA3000921883
:100580005B4150EA0107EDD152EA030012D082EA42
:10059000040083EA0501084305D0101BAB4106D2D5
:1005A0000122002306E000224FF0004302E06FF03A
:1005B000010253101AEB06004CEB085110EB0A0035
:1005C00041EB0B01BDE8F04D00F061B8C1F30A52F8
:1005D000C1F3130140F2FF3341F480119A4202DA71
:1005E00000200146704740F233439A42A2F2334260
:1005F00002DC524200F029B800F018B830B5041EF1
:1006000071F1000404DB4FF00044404264EB01014F
:10061000141E73F1000405DB1C464FF000435242E8
:1006200063EB0403994208BF904230BD202A04DBEB
:10063000203A00FA02F1002070479140C2F12003F5
:1006400020FA03F3194390407047202A04DB203A34
:1006500021FA02F00021704721FA02F3D040C2F1E2
:1006600020029140084319467047202A06DBCB1729
:10067000203A41FA02F043EAE07306E041FA02F35D
:10068000D040C2F12002914008431946704710B58E
:10069000141E73F1000408DA401C41F100019218A5
:1006A0005B411A4301D120F0010010BD2DE9F04D4E
:1006B00092469B4611B1B1FA81F202E0B0FA80F2A3
:1006C00020329046FFF7B2FF04460F4640EA0A0088
:1006D00041EA0B0153465A46084313D0114653EAE8
:1006E000010019D0C8F140025046FFF7AEFF0546A1
:1006F0000E46504659464246FFF798FF084305D03C
:10070000012004E020463946BDE8F08D0020054375
:1007100046EAE0762C4337430A986305E40AA0EBE7
:1007200008000022FD0A44EA47540A3002D500209E
:100730000146E9E7010510196941DDE9084500199D
:100740006941BDE8F04DA2E780B540F2280045F2CE
:100750007C01C2F20000C0F2000100F05FFF00B9AE
:1007600080BD02A006A1392201F0CCF94653505FAA
:1007700053554343455353203D3D2065727200005D
:100780004150502F6273705F64656275675F756179
:1007900072742E630000000000BE704710B540F276
:1007A000840045F2EC01C2F20000C0F2000100F04A
:1007B00078FE044620B105A0214603F067FE02E062
:1007C0000BA004F049FC204610BD00BF5343495F15
:1007D000493243E68993E5BC80E5A4B1E8B4A5EFCE
:1007E000BC814572723D30782578200D0A000000EA
:1007F0005343495F493243E5889DE5A78BE58C96D5
:10080000E68890E58A9FEFBC810D0000B0B52DED24
:100810000E8B40F21834C2F20004256803F0E6FBA8
:10082000002D00F0D78040F21401C2F2000191EDDA
:10083000000A40F21001C2F2000191ED009A40F26C
:100840001801C2F2000120EE00AA29EE091AD1ED2A
:10085000000A31EE0A1A20EEA0BA9FED602A3BEEA4
:10086000011A2168B1EEC11A2060B4EE421AF1EE0D
:1008700010FAC0F2B0809FED5A2AB4EE421AF1EE9F
:1008800010FA00F3A880401A02EE100A9FED553AC4
:10089000B8EE422A55A082EE032ABFEE003A31EEAE
:1008A000031A9FED543AB0EEC11AB4EE431A9FED0D
:1008B0004E1AF1EE10FAB8BF043090ED00CA40F2C3
:1008C0000800C2F2000080ED00CA82FE01DA03F0E7
:1008D00001FE3AEE0B1A9FED488AF1EEC10A20EEB6
:1008E000080A9FED46EA80EE0EAAB1EE490A03F02F
:1008F000F1FD40F2580120EE080AC2F2000140F278
:10090000D00091ED001AC2F2000080EE0E0A90EDC8
:10091000002A21EE0D1A40F25C02C2F2000231EE12
:10092000021A40F2CC0192ED002A40F26002C2F2BB
:100930000001C2F2000291ED003A22EE0D2A92ED82
:10094000004A32EE032A24EE0D3AB7EE004A40F296
:10095000D80234EE4C4AC2F2000292ED005A24EE64
:100960000A6A2CEE011A33EE053A31EE061A9FEDB3
:10097000265A9FED246A24EE000A2CEE022AB4EED9
:10098000415A9FED1F4A31EE067A32EE000AF1EE2F
:1009900010FA82ED003AB4EE481A31EE042A37FE1E
:1009A000011AF1EE10FAB4EE405A32FE011A30EE9E
:1009B000042A30EE064AF1EE10FA80ED001AB4EE89
:1009C000480A34FE000AF1EE10FA32FE000A81ED08
:1009D000000A00E02060BDEC0E8BB0BDCDCC4C3FDA
:1009E0009A99993F00007A446F12833A48E17A3F1E
:1009F0006666663FCDCC4C3D00003443DB0F49407A
:100A00000000B4C30000B443000034C32DE9F04F2C
:100A100085B0002653A0ADF810600396CDE90166BD
:100A200004F01AFB642002F0D1FC00274FF0000B09
:100A3000002400254FF000094FF0000A4FF0000895
:100A400001A83B210E2200F0FBF9F0B9BDF804002B
:100A5000BDF8061000BA08EB204808BABDF8081027
:100A60000AEB204A08BABDF80C1009EB204908BA75
:100A7000BDF80E1005EB204508BABDF8101004EBC8
:100A8000204408BA0BEB204B01374EF604514FF0CF
:100A90008050CEF200010860BFF34F8FBFF36F8F1D
:100AA000B6F5F97F06F10106CAD9380454D0B9B2B7
:100AB00002EE105A01EE101A03EE104A04EE10BABC
:100AC000B8EE411AB8EEC22AB8EEC33AB8EEC44A3C
:100AD00082EE012A83EE013A84EE014A00EE108A8A
:100AE00005EE10AA06EE109AB8EEC00AB8EEC55A86
:100AF000B8EEC66A80EE010A85EE015A86EE011A4A
:100B00009FED276A40F21C0082EE062A83EE063A29
:100B100084EE064A9FED216AC2F2000040F26402B0
:100B2000C2F2000220EE060A25EE065A21EE061A4F
:100B3000BFEE006A80ED000A31EE061A80ED015A20
:100B400082ED002A80ED021A16A082ED013A82EDB4
:100B5000024A03F09BFC02E01EA004F07DFA05B0FF
:100B6000BDE8F08FE6ADA3E59CA8E6A0A1E58786E9
:100B70004D505536303530E99BB6E6BC82EFBC8C23
:100B8000E8AFB7E4BF9DE68C81E8AEBEE5A487E997
:100B90009D99E6ADA22E2E2E0D000000000080389B
:100BA000000003434D505536303530E99BB6E6BC66
:100BB00082E6A0A1E58786E5AE8CE68890EFBC8151
:100BC000E69C89E69588E98787E6A0B72564E6ACC8
:100BD000A10D0A00E6A0A1E58786E697A0E69C891C
:100BE000E69588E695B0E68DAEEFBC810D0000007D
:100BF0002DE9F0472DED108B82B053A004F02CFAB4
:100C0000642002F0E3FB9FED5E8A40F210089FED46
:100C10005D9A9FED5DBA9FED5DCA9FED5DDA40F292
:100C2000140940F2180A4EF60456B0EE48AA002500
:100C3000C2F20008C2F200094FF08054C2F2000A6A
:100C40000027CEF2000600BF00F0CEF990BB99ED70
:100C5000000A98ED00EA20EE00FA2EEE0E1ADAED08
:100C6000000A31EE0F1A60EEA08A38EE811AB1EE5A
:100C7000C11AB4EE491AF1EE10FA1BDBB4EE4B1AAE
:100C8000F1EE10FA16DC03F025FC20EE0C0A3FEE24
:100C9000281A80EE0D0AF1EEC10A38EE008AB1EE94
:100CA0004E0A03F017FC20EE0C0A013780EE0D0A05
:100CB0003AEE00AA3460BFF34F8FBFF36F8F632DFE
:100CC00005F10105C0D3380432D0B8B2002100EEDE
:100CD000100A40F2D800B8EE400AC2F2000088EED6
:100CE000001A8AEE008A016040F2D00140F2CC0284
:100CF000C2F20001C2F2000211EE100A81ED001AE8
:100D000082ED008AFFF780FA044618EE100A0D46BD
:100D1000FFF77AFA41EC100B1EA022468DED000B76
:100D20002B4603F0B3FB02B0BDEC108BBDE8F0879F
:100D300045F27030C0F2000002B0BDEC108BBDE88F
:100D4000F04704F089B900BFE6ADA3E59CA8E6A092
:100D5000A1E58786E5889DE5A78BE5A7BFE68081AD
:100D6000EFBC8CE8AFB7E4BF9DE68C81E8AEBEE592
:100D7000A487E99D99E6ADA22E2E2E0D000000005D
:100D800000000000CDCC4C3F9A99993F00003443BD
:100D9000DB0F4940E5889DE5A78BE5A7BFE680818D
:100DA000E6A0A1E58786E5AE8CE68890EFBC81528F
:100DB0006F6C6C3D252E3166C2B02050697463683B
:100DC0003D252E3166C2B00D0A00000080B56B20B3
:100DD000002100F0E5F900B180BD322002F0F6FA02
:100DE0001C20002100F0DCF90028F5D11B20002197
:100DF00000F0D6F90028EFD119204F2100F0D0F9EA
:100E00000028E9D11A20032100F0CAF90028E3D113
:100E10006C20002100F0C4F9002818BF80BD02A09A
:100E200004F01AF9002080BD4D505536303530E9B8
:100E3000858DE7BDAEE5AE8CE68890EFBC810D00F8
:100E40002DE9F04F83B000288DF80B1000F083805F
:100E50009046002A00F07F8040F2840440F2800B2C
:100E60000D4682464FF00209C2F200040DF10B0656
:100E7000C2F2000B3CA7CDE9001000BF204631466E
:100E80000122012300F0C2FB20B10346C9F1030196
:100E900038462AE0DBF80000032818D04FF0320A69
:100EA000012002F093FADBF800000328AAF1010008
:100EB00003D0BAF1010F8246F2D1DDE9005A40F2C7
:100EC000840429A70DF10B06C2F20004E0B320460A
:100ED00051464246002300F091FB90B1034645F293
:100EE0003D30C9F10301C0F200002A4603F0CEFAFA
:100EF000012002F06BFAB9F1000FA9F10109BDD18F
:100F00002EE0DBF8000002282AD03226012002F071
:100F10005DFADBF800000228A6F1010002D0012EE4
:100F20000646F3D1E0B945F21430C9F10301C0F22D
:100F300000002A4603F0AAFA40F284040AA70DF141
:100F40000B06C2F20004D6E7C9F1030113A02A463A
:100F500003F09CFACFE71CA004F07EF8022000E02A
:100F6000002003B0BDE8F08FE58699E59CB0E59DD3
:100F700080E5A4B1E8B4A528E9878DE8AF9525649C
:100F800029EFBC815265673D3078253032582C20DE
:100F90004572723D307825780D0A0000E58699E5A6
:100FA0009CB0E59D80E8B685E697B628E9878DE890
:100FB000AF95256429EFBC815265673D30782530B7
:100FC00032580D0A00000000E8AFBBE5AF84E5AD84
:100FD00098E599A8E58F82E695B0E697A0E6958812
:100FE000EFBC810D00000000F0B585B00020ADF829
:100FF00010000390CDE9010001A83B210E22FFF76C
:101000001FFF002840F0C180BDF804C0BDF806E015
:10101000BDF808309CFABCF29EFABEF7DDBA00EECD
:10102000102A01EE107A03EE105ABDF80C1040F2AF
:101030001C05B8EEC00A9FED562AC2F20005B8EEB4
:10104000C11AB8EEC33ACEBABDF80E2095ED004AEB
:1010500095ED015A95ED026ABDF8105020EE020A96
:1010600007EE106A21EE021A23EE022ABDF80A40AA
:10107000D7BAEEBA30EE440A31EE451A32EE462ABD
:10108000B8EEC73A9FED434A05EE107A06EE106AB5
:101090009CFA8CF740F27006E4BA3F0CC2F20006EC
:1010A000B8EEC55A83EE043A07EE104A37809EFA2E
:1010B0008EF740F272063F0CC2F2000685EE045A2B
:1010C000B8EEC66AB8EEC77ADFED330A37801BBACE
:1010D00040F274071B0CC2F2000786EE044A87EE4A
:1010E000206A3B8009BA40F27603090CC2F2000381
:1010F000198011BA40F27802090CC2F20002118084
:1011000040F21402C2F2000240F2100182ED001A15
:1011100040F26402C2F20001C2F2000281ED000A54
:1011200029BA92ED000A40F27A03090CC2F20003D8
:1011300040F2180733EE400A92ED011A198040F28E
:101140005801C2F20007C2F2000187ED002A35EE15
:10115000411A92ED022A40F25C0281ED000A9FEDF5
:101160000F0AC2F2000282ED001A40F2600134EE72
:10117000421A36EE000A40F27C02C2F20001C2F2CC
:10118000000281ED001A82ED000A05B0F0BD00BF3B
:1011900000008038000003430000AA43B81E12423A
:1011A0002DE9F04F81B040F2840B40F280050446F7
:1011B00002270DF1020AC2F2000B0FF2A408C2F2DC
:1011C00000050FF26C098DF802008DF8031000BFC6
:1011D000584651460222002300F018FA50B1034647
:1011E000C7F103014846224603F050F9012002F0FE
:1011F000EDF815E02868032816D03226012002F009
:10120000E5F828680328A6F1010002D0012E064661
:10121000F4D148B9C7F103014046224603F036F93C
:10122000002FA7F10107D3D1002001B0BDE8F08F56
:10123000493243E58699E5A4B1E8B4A528E9878D4C
:10124000E8AF95256429EFBC815265673D3078256C
:101250003032582C204572723D307825780D0A00C6
:10126000493243E58699E8B685E697B628E9878D41
:10127000E8AF95256429EFBC815265673D3078253C
:101280003032580D0A00000028B1406840F2800159
:10129000C2F20001086070472DE9F04146F22018C3
:1012A000C4F20008B8F80000B8F8201040F2E405D5
:1012B00001EA0006B7B20024C2F2000527FA04F0E2
:1012C000C00704D055F8241009B1204688470134DE
:1012D000102CF3D1A8F81060BDE8F0810F4B19680D
:1012E000EFF309821EF0100F08BF22ED108A22E9E9
:1012F000F04FEFF30B8342F8043D0A604FF010000B
:1013000080F31188BFF34F8FBFF36F8F02F054F952
:101310004FF0000080F3118801F0C2BBE803002009
:10132000B0B543F22404C4F208040025C82001210A
:10133000257100F071F8257020780028FCD1207804
:1013400040F00200207000BF20788007FCD400200D
:1013500004F8020C14F8020C0028FBD1012000F064
:101360000BF84EF2BB420021C4F2010201201170C1
:10137000BDE8B04000F027B880B50122EFF310813E
:1013800082F3108840F28C12C2F2000232F8103060
:101390008BB94EF2FE3C45F22A13C4F2010CC0F2A6
:1013A0000003BCF800E033F8103043EA0E0343F4C6
:1013B0002543ACF8003032F81030013322F81030F9
:1013C00081F3108880BD0122EFF3108182F3108831
:1013D00040F28C12C2F2000232F8103023B132F81F
:1013E0001030013B22F8103032F810208AB94EF24A
:1013F000FE3CC4F2010C45F22A12BCF80030C0F2E7
:10140000000232F8100043F4254222EA0000ACF852
:10141000000081F31088704740F2D402C2F200024B
:10142000136801FB00F04CF60021C3F69A3148F630
:101430003812C0F24102B1FBF3F1904207D24FF4EF
:101440007A7200FB02F0B0FBF1F0800808E089003E
:10145000B0FBF1F0904207D24FF47A7100FB01F03B
:1014600008B100F03EBC70474FF0FF3000F039BCCF
:101470007047022818BF704740F2801045F23811BB
:10148000C2F20000C0F20001AFF3008080B545F267
:101490005422C5F24F020260084601F081FA002092
:1014A00080BD2DE9F0410A7848F20003C4F211032F
:1014B00003EB0223024603610160D1E902034FF00E
:1014C000000EC2F840E04FF0010CC2E90103D1E97F
:1014D0000B0344F20405D063C4F208055364EFF330
:1014E00010838CF310884FF0004408782E6824FA9B
:1014F00000F026EA00002860286883F31088F024B2
:1015000010681369406B83F802E0136940F2981881
:10151000DC728378146903F0030323701369FA24DF
:101520009C7143781469C2F20008637003781469EF
:101530009B002033E3714379146946F2003623722D
:10154000C3781469C4F20006A37400791369C0005B
:101550000130587210692323837210694EF2001310
:1015600080F80DE0087C8C69CEF20003000103F5E1
:101570004075285548F8242056F8247003F5C070AB
:1015800027F4803746F8247056F8247004F01F07BB
:101590000CFA07F76409BFF35F8F40F8247043F833
:1015A00024700C7CC96924016C5448F8212056F839
:1015B000214024F4803446F8214056F8214001F0BF
:1015C0001F040CFA04F74909BFF35F8F40F821703C
:1015D00043F8217043F24321C5F249310020C2E9AA
:1015E00008EEC2E90AEE82F835E082F836E082F8C9
:1015F00037E082F838E0D160BDE8F08180B580F84E
:101600003630012301F0C9FA002080BD80B580F892
:101610003630002301F0C1FA002080BD0A78012392
:10162000934013F0060F05D00B6CDB681B781B078B
:1016300000F1E0802DE9F04748F20003C4F2110305
:1016400043EA0222D1E90E364FF000084362837864
:10165000C66223F003035E1C86704E68026280F847
:101660000080C161C0F8288016B943F0020383707E
:10167000CF6A4EF2001C07F01F034FF0010ECEF2AE
:10168000000C0EFA03F30CF180047E0991F8285047
:1016900044F82630BFF34F8F46F2003AC4F2000AF6
:1016A000BFF36F8F5AF827602A0126F480364AF874
:1016B00027600CF540755AF82760EA554A6940F2F0
:1016C000981902F01F06C2F200090EFA06F6530935
:1016D00049F827000F7C44F82360BFF34F8FBFF316
:1016E0006F8F5AF822303E0123F480334AF82230BB
:1016F0005AF82230AE5449F82200CA690B7E02F033
:101700001F060EFA06F6570944F82760BFF34F8FFD
:10171000BFF36F8F5AF822601B0126F480364AF817
:1017200022605AF82260AB5449F822004A6A91F8C4
:10173000203002F01F060EFA06F6570944F827601B
:10174000BFF34F8FBFF36F8F5AF822401B0124F471
:1017500080344AF822405AF82240AB5449F822001B
:10176000EFF310828EF3108844F204050B78C4F274
:1017700008054FF000442E6824FA03F326EA030319
:101780002B602B6882F31088026A82F80280026A5A
:1017900082F80480026A82F80980026A82F80A806C
:1017A000026A82F80B80026AA2F81A800A780EFA9E
:1017B00002F340F2F932134202D0036A4024DC748F
:1017C000036A06241C770B780EFA03F3134203D046
:1017D000026A4FF478439382D1E90163CA684FEA01
:1017E000C20242EA03123EB1032E08BF42F0400299
:1017F000F22602E00322ADE0E226036A02271A7015
:10180000026A002596710A6C936907EA4307082B60
:10181000036A08BF0A275F73066AD2E90137357287
:101820001668DB0126F00106022EDEB267F34516CC
:101830000AD1036AFF275F701268022A026A08BF92
:1018400046F01006D67117E0036ADE71D268036AAB
:1018500097785F7057781E7807F0030706F0FC064C
:1018600037441F70D7789F74DF79127807F0A30789
:1018700002F05C023A44DA710022C369C0E9032233
:10188000C0E90522D1F840E05B699EF800105AF8E3
:10189000234003F01F0524F480344AF823405AF80B
:1018A0002340012404FA05F60CF5C0755B09BFF36B
:1018B0005F8F45F823604CF82360C369DB6A5AF8F0
:1018C000236026F480364AF823605AF8236003F038
:1018D0001F0604FA06F65B09BFF35F8F45F8236025
:1018E0004CF82360C369DB695AF8236026F480361C
:1018F0004AF823605AF8236003F01F0604FA06F63C
:101900005B09BFF35F8F45F823604CF82360C36920
:101910005B6A5AF8236026F480364AF823605AF846
:10192000236003F01F06B4405B09BFF35F8F45F8E7
:1019300023404CF823401C23076A63F39F01B970CE
:10194000DEF8141044F65513C5F24333C0E90131F3
:10195000BDE8F0471046704780B5D0F820E09EF80B
:1019600002C00CF07B038EF80230837803F003038F
:10197000A2EB030C0B44026AC0E9033C937843F0EA
:1019800080039370827802F00302022A05D109884D
:10199000006A41F47E41C18102E00978006AC170A9
:1019A000002080BD00F03AF800F017FBFEE70000D1
:1019B0001EF0040F0CBFEFF30880EFF3098001491C
:1019C00008470000A532000010B51020EFF3118485
:1019D00080F3118802F010FB30B14EF60450CEF2C5
:1019E00000004FF08051016084F3118810BD4EF269
:1019F0002000C4F201008179006849F66822C2F231
:101A00000102C0F3026052F8211021FA00F040F206
:101A1000D401C2F2000108607047000070B54EF6B4
:101A2000085040F20004CEF200004FF47001C0F202
:101A30000004C0F8801004600020FFF71AFD00F0D9
:101A400065F80120FFF715FD206849F65821A0F53B
:101A5000806080F30A8840F21000C2F20000C0F2F9
:101A60000101FEF7C6FB40F2000045F64C2140F2B2
:101A70001002C2F20000C0F20001C0F20002FEF744
:101A80009FFB40F2C01440F2C010C0F20004C0F24C
:101A90000000001B8510012D06DB264656F8040BBE
:101AA00020448047013DF9D1FFF7A1FFFFF738FC43
:101AB0000320FFF761FC40F610510020C4F208013A
:101AC0004FF6FF7221F8102001300C28FAD10320C4
:101AD000FFF779FC0320FFF74FFC0420C4F20E004F
:101AE0000021016041608160C1600320FFF76BFC51
:101AF0000220FFF7BEFC00F0A9F80020BDE870400E
:101B000000F0A2B800BE00BFFEE700002DE9F041E2
:101B10004EF2FE34C4F201044AF203504CF20015B6
:101B20002080C4F201050120A88000BFA8880028F9
:101B3000FCD147F200010120C4F200012880886036
:101B4000086049F6682642F6005041F20022C2F2CF
:101B50000106C0F23110C0F27A02C6E9000243F277
:101B600000604FF40041C0F26E10C6E902104CF262
:101B70000020C0F6EB304EF220073161C4F20107BD
:101B80007061B879396856F82000C1F3026140F2FB
:101B9000D408C840C2F20008C8F8000000206075F0
:101BA000092087F8820094F8820018B994F883001D
:101BB000800744D094F8820050B9012084F8820054
:101BC000C8200121FFF728FC94F882000128FBD1EE
:101BD000002084F8830084F882000020B87400BFDD
:101BE000387F0007FCD543F2021038810020B8721C
:101BF000387F8006FCD50320287741F22120C2F2ED
:101C0000010038600520B871B879396856F82000AD
:101C1000C1F30261F022C840C8F8000042F2080097
:101C2000C4F20000F12101710121017002714FF431
:101C30002540397487F832102080BDE8F0814FF4D8
:101C40007A70FFF715FCC8E770470000F0B583B065
:101C500048F248070320C4F20007FFF78DFB6FF03E
:101C6000FF0038604FF0FF3045F274140290CDE968
:101C7000000000210122C0F20004684654F821301F
:101C800053B14D0901F01F0350F8256002FA03F328
:101C900026EA030340F8253001316029EED14EF2E7
:101CA00080320021CEF2000250F8213007EB81068D
:101CB000B36242F8213001310329F5D10320FFF747
:101CC00082FB46F200310020C4F2000154F82020CB
:101CD0000AB141F820200130602804BF03B0F0BDF4
:101CE000F4E701380028FCD1704700002DE9F047E7
:101CF00004460088C8B34EF2BB4A00250FF27009B3
:101D0000C4F2010A4FF00108002600BF606859F8CC
:101D1000262000EBC500416891421FD100689AF867
:101D2000001000F0B85008FA06F7B0F1807F07EA1B
:101D3000010007D190B90120FFF71EFB9AF80000BF
:101D4000384306E050B10120FFF716FB9AF8000077
:101D5000B8438AF800000120FFF735FB0136032E57
:101D6000D4D1208801358542CED3BDE8F08700BFAD
:101D700002040000030400000404000080B5416870
:101D8000022910D0042918BF80BD00F1080140F2DB
:101D90002800C2F200000122FFF7DEFD40F264409D
:101DA000C2F2000003E040F26540C2F200000121EF
:101DB000017080BD10B582B040F27C10C2F200000C
:101DC000016845F234130131016041F6917040F22F
:101DD000DC044FF0010CC0F200000BA1C0F20003C4
:101DE0004FF40062C2F20004CDE900C401F0E2FF4A
:101DF000012804BF02B010BD2068002102B0BDE878
:101E0000104000F0C8BE00BF64656275675F756111
:101E10007274000084B0FEF797FCFEF7BFFCFEF77B
:101E2000D5FF02F0E3F840F2E00940F2E20BC2F223
:101E3000000903ACC2F2000B3EA535A64FF0000826
:101E400099F800100390012936D100BF20460A21DD
:101E500002F04CF8FFF7C8F820B1304603F0FCF868
:101E600026E000BFFEF7D2FCBBF80000013081B2D3
:101E7000ABF800000A291BD30020ABF8000040F2A9
:101E8000D000C2F200000068FEF7BEF9074640F23B
:101E9000CC00C2F2000000688A46FEF7B5F941ECBA
:101EA000100B28463A468DED000B534602F0EEFA31
:101EB00099F800000028C9D108F1010845F29630D0
:101EC0005FFA88F1C0F2000002F0E0FAFEF79EFD32
:101ED000FEF78EFE012089F80000002001F0BEF818
:101EE000074645F2F030C0F2000003F0B5F8BA0042
:101EF0001AA0394602F0CAFA632F05D845F2C53058
:101F0000C0F2000003F0A8F802F070F898E700BFF4
:101F1000E29AA0EFB88F2052656164207369782D32
:101F2000617869732064617461206661696C6564BD
:101F3000210D000041747469747564653A20526F14
:101F40006C6C3D252E3166C2B02050697463683DCB
:101F5000252E3166C2B00D0A00000000F09F938A62
:101F600020537461636B20667265652061667465D9
:101F70007220696E69743A20256C7520776F7264DF
:101F800073203D20256C752062797465730D0A00FD
:101F900010B5044600F0CEFD2046BDE81040FFF726
:101FA00039BF000080B582B0019040F22800C2F233
:101FB000000001A90122FFF7CFFC40F26540C2F208
:101FC000000000BF01780029FCD0002101700198B9
:101FD00002B080BD7047FFF7FDBF80B540F27C10B6
:101FE000C2F200000021016040F22410C2F20000A1
:101FF00040F22C1201704FF48070C2F200020121F5
:1020000001F052FB40F22811C2F20001086018B939
:102010000020002100F0BFFDFFF7CCFE01F06AFABE
:10202000002080BDF0B581B00D4649F6582140F240
:10203000E836C2F20101C2F200060F6831680446B8
:10204000081D00F0FAFF601C16D1ADB149F6302032
:10205000C2F201004168326891608A683368DA60D0
:10206000336804335360326804328A6031684861EF
:1020700001680131016020E03068E41944600BD34D
:1020800040F2F830C2F2000000683168043101B05B
:10209000BDE8F04001F04EB840F2F030C2F200006E
:1020A00000683168043101F045F849F6AC10C2F21D
:1020B000010001688C4238BF046001B0F0BD00002F
:1020C0002DE9F047044601F052F849F26C40C2F2A3
:1020D0000100016840F2E83701310160C2F20007F7
:1020E000396849F6242A40F20046C2F2010AC2F2D7
:1020F000000651B1DAF8000000283DD13868E16AE5
:10210000C06A884298BF3C6036E03C6000680128A5
:1021100032D10025701900F0FFFF1435642DF9D17C
:1021200049F67818C2F20108404600F0F5FF49F67A
:102130008C19C2F20109484600F0EEFF49F6C010C2
:10214000C2F2010000F0E8FF49F64420C2F20100AB
:1021500000F0E2FF49F63020C2F2010000F0DCFF9F
:1021600040F2F030C2F20000C0F8008040F2F830D7
:10217000C2F20000C0F8009049F27840C2F20100BB
:102180000168231D01310160616449F27C41C2F2A2
:102190000101E06A0A68904288BF086000EB800095
:1021A00006EB80014A6861619568C4E902256B60AD
:1021B000936056F82010013146F8201000F0FEFF21
:1021C000DAF8000078B13868E16AC06A88420AD259
:1021D0004EF60450CEF200004FF080510160BFF384
:1021E0004F8FBFF36F8FBDE8F087000070B582B0EE
:1021F00000F0BDFF49F65C26C2F20106306850BB14
:1022000049F65014C2F20104204600F085FF49F659
:102210006415C2F20105284600F07EFF40F2EC3062
:10222000C2F20000046040F2FC30C2F2000040F252
:102230001C3240F29433056000250A20C2F20002ED
:102240000C21C2F20003009501F04EFA306010B18B
:1022500003A101F069F802B0BDE8704000F0AEBF24
:10226000546D72510000000070B5866B036C04461B
:1022700043B31546CAB1E0681A46FDF7A1FFE1680D
:10228000206C2268091A9142E16003D2A1684042A1
:102290000844E060A81EB0FA80F040093146002EE4
:1022A00018BF01210840361A0CE060681A46FDF795
:1022B00087FFD4E90101226C10448842606001D399
:1022C00020686060701CA06370BD000010B50446FB
:1022D00090F86500022808BF10BD012803D038B966
:1022E000206B00F091FF2046BDE8104000F08CBF4D
:1022F00045F6CF0103A0C0F2000140F6D972FFF706
:1023000001FC00BF70785443422D3E7563537461E5
:10231000746963616C6C79416C6C6F636174656442
:10232000203D3D202820282075696E74385F742078
:10233000292032202900000049F2704540F2004A6D
:102340004EF6045849F6442749F26C46C2F201059C
:10235000C2F2000ACEF200084FF08059C2F2010723
:10236000C2F20106286890B100F001FFF868C46865
:10237000201D00F062FE30680138306028680138A6
:10238000286000F01BFF2046FFF7A0FFEAE7DAF81D
:102390000000022805D3C8F80090BFF34F8FBFF3A9
:1023A0006F8F00F08AFEDDE72DE9F04381B00A9CD3
:1023B0008146206B16460F46089D9100A52298463F
:1023C000FDF710FF206B6FB104F13401002200BF54
:1023D000BB5C8B541BB10F2A02F10102F8D1002122
:1023E00084F84310052D1ED200EB8600099F0438A7
:1023F00020F00706201DE56200F099FE04F11800A8
:1024000000F095FEC5F10500216BA06130464A46FB
:1024100043462461646200F0AFFA206007B13C607B
:1024200001B0BDE8F08345F6CF0103A0C0F2000182
:1024300040F29632FFF766FB75785072696F7269E9
:102440007479203C202835290000000080B549F629
:102450002822C2F2010200BF114612688242FBD359
:102460004B68D0F804C001EB030E864503D19C44B1
:102470000846C1F804C000EB0C03934201D0134698
:102480000AE040F2F433C2F200031B689A4203D020
:10249000D2E90032624442608142036018BF0860A2
:1024A00080BD8C46014641F804CF9445006108D9AF
:1024B00040F2EC309A42C2F200000AD29C450ED2A1
:1024C00007E08069D21A824209D240F2FC30C2F29F
:1024D000000080B5006800F02DFE002080BD0120C6
:1024E000704770B540F2EC32C2F200021268064644
:1024F000D2680D46D468201D00F09FFD94F8280096
:10250000410704D400F0FA0084F8280004E02046D3
:1025100031462A4600F006F8216A2046BDE87040A0
:102520000847000070B50546806914460E46014410
:10253000284600BF3346FFF7B4FF48B1A869296AAF
:10254000064428468847A869224681192846F1E7AB
:1025500070BD0000F0B581B0044601F047FD40F2C7
:10256000E436C2F200063168054688420ED240F2D7
:10257000EC37C2F2000700BF3868016841B1C0689B
:102580004FF0FF310068FFF7ACFFF5E7002007E0F0
:1025900040F2FC31C2F200010A68086001203A6092
:1025A00020602846356001B0F0BD000000BE00BFCD
:1025B000FEE7000084B040F2EC3849F65C254EF6A8
:1025C0000459C2F2000801ACC2F20105CEF20009C2
:1025D000EA4600BFD8F80000D0F800B0BBF1000F09
:1025E0001ABFC0680668002600F0DEFF2046FFF72D
:1025F000B1FF019911B101F04BFE83E00746BBF139
:10260000000F08D0BE4206D801F042FE30463946DF
:10261000FFF767FF76E0BBF1000F01D0002208E072
:1026200040F2FC30C2F2000000680068B0FA80F0AE
:1026300042092868F11B00F0A6FE01F029FE0028DF
:1026400060D14FF08050C9F80000BFF34F8FBFF347
:102650006F8F57E00198002854D4039E706910B121
:10266000301D00F0EAFC5046FFF774FF0199013974
:10267000082947D80746DFE801F005052C1C3E0570
:10268000052C1C0096F82800029BB16940F001005F
:1026900086F82800194430463A46FFF702FF88B30F
:1026A00096F8280041071BD400F0FA0086F82800AD
:1026B0001DE096F8280040F00101029886F82810E5
:1026C000B06140B3C11930463A463B46FFF7E9FED8
:1026D00018E096F8280000F0FE0086F8280011E0C7
:1026E0000298B1693A4601443046FFF71BFF316A50
:1026F0003046884706E096F828008107EBD430463C
:1027000000F082FD28682146002201F07DF90028B2
:102710007FF4A0AF5EE745F63A1103A0C0F20001D6
:102720004FF45D72FFF7EEF92820707854696D65FB
:10273000722D3E7854696D6572506572696F644997
:102740006E5469636B73203E203020290000000026
:10275000F0B581B0044600F00AFD94F94560012E01
:102760000EDB04F1240500BF286848B1284601F0BB
:1027700016FD08B100F061FE70B2013E0128F3DCE5
:10278000FF2684F8456000F019FD00F0F0FC94F994
:102790004470012F0EDB04F1100500BF286848B11A
:1027A000284601F0FCFC08B100F047FE78B2013F7A
:1027B0000128F3DC84F8446001B0BDE8F04000F08B
:1027C000FDBC0000F0B581B0044600F0EDFE40F223
:1027D000F431C2F20001086870BB40F26640C2F2F8
:1027E000000010F0070200F1070222F00702A0EB40
:1027F000020303F5C83304BF02464FF4C83349F659
:102800002820C2F201000027C0E90027D01820F0DC
:102810000700A0F108030B6040E90277086849F659
:10282000A8119B1AC2F201010B6049F6A011C2F275
:102830000101C2E900030B6004F1080109294AD330
:1028400014F0070205D0093A914244D824F0070158
:10285000103101294FF000043EDB49F6A016C2F208
:1028600001063268914237D849F62822C2F20102A5
:1028700017687B688B4205D23D681DB16B683A468C
:102880002F46F7E7874226D0146838685B1A112B69
:10289000106006D3781842072ED143607960FFF7A5
:1028A000D5FD49F6A81178683268C2F201010B68BB
:1028B000121A9A42326038BF0A6049F6B412C2F264
:1028C0000102136840F0004000210834C7E90010FD
:1028D000581C106000E0002401F0DAFC600702BF21
:1028E000204601B0F0BD45F2A34114A0C0F20001A2
:1028F0004FF49772FFF706F945F2A34102A0C0F228
:102900000001EE22FFF7FEF8282028202820736916
:102910007A655F7420292070784E6577426C6F630A
:102920006B4C696E6B2029202620282030783030AF
:10293000303720292029203D3D2030002820282024
:10294000282073697A655F74202920707652657437
:1029500075726E2029202620282073697A655F749D
:102960002029202820307830303037202920292095
:102970003D3D203000000000283140F8481D42F263
:10298000AD51C0F200014FF0807C22F00102C16322
:102990006FF002010264C0F844C0C0E90913704737
:1029A00070B50446FFF7A2F940F2941CEFF31080D3
:1029B000012181F31088C2F2000CDCF8001039B953
:1029C00040F60351C4F2080100220A7040220A7046
:1029D000DCF800100131CCF8001080F3108820885A
:1029E00018B340F6000E0021C4F2080E606800EB38
:1029F000C10250F831305268DD034FEA1220D2B2E2
:102A00000BD50EEB801555F8226026F4803645F87C
:102A1000226023F4803645F822600EEB80100131ED
:102A200040F8223020888142E0D30120EFF310816A
:102A300080F31088DCF8000020B1DCF800000138D9
:102A4000CCF80000DCF8000038B940F60350C4F2BE
:102A50000800002202708022027081F3108870BD8D
:102A6000B0B584B00446806A40B1D0E900CED0E968
:102A70000253CDE900CECDE9025300E06846E36998
:102A8000D4F824C01B78E56AC0E90032C0E9021519
:102A9000E047A06A10B19DE82E002EC004B0B0BD82
:102AA000074801680A6802CA81F30B88B2E8F04F50
:102AB0001EF0100F08BFB2EC108A82F3098870472D
:102AC000E803002088B14EF20C00C4F20100B0F916
:102AD0000010B1F1FF3F09DDBFF34F8F30BFBFF3EF
:102AE0006F8F62B6BFF36F8F72B6704780B54EF2CC
:102AF000FE32C4F20102B2F800E04AF2025CCFF604
:102B0000FF7C0023A2F800C003804EF4254313800D
:102B1000BFF34F8F30BFBFF36F8F62B6BFF36F8FBE
:102B200072B61388A2F800C0018043F425401080DB
:102B300080BD0000B0B540F22814C2F20004206845
:102B40004FF0FF3101F02EF8012803D0206800215A
:102B500000F021F840F22410C2F20000017801B127
:102B6000B0BD01210170FFF736FA40F27C15C2F2C8
:102B7000000500BF286801382860F1D020680021D6
:102B80000022002300F06CFE0128F3D02068002111
:102B900000F001F8EEE700BE7047D0F808C0C0E9C9
:102BA0000812BCF1010F08D141684FF4807C43EA60
:102BB0004101A0F831C080F83010002B18BF01236C
:102BC00080F835300021C0E90A2190F8322080F8E1
:102BD000341080F8332080F8371080F8391080F8EE
:102BE0003B1090F83510B422012904BF012180F870
:102BF000391001698A7090F83810B1B1002180F85D
:102C0000381090F832103122012908BF3022815C3F
:102C10000269D17090F8331090F83420013980F8AF
:102C20003310511C80F83410704700695121C17273
:102C3000704710B582B0EFF3038040F298116FF344
:102C40005F20C2F2000101EB800050F8404C206987
:102C5000C17A01F0F701C17294F83700012817D149
:102C60002069F021C172206C012300281ABFD0E92D
:102C70000012CDE900126846E16B626CC0E90023E6
:102C80008847206CE0B3DDE90012C0E9001237E0AC
:102C900094F8321094F8340081420FD1A06A78BBC6
:102CA00094F835000321002818BF022194F8382039
:102CB0002069012A36D10022C2723AE060B194F84C
:102CC000351002284FF000000BD1C9071CBF94F843
:102CD000310040F0010004E03120012908BF30201C
:102CE000205C21690022CA722169C87094F83300FF
:102CF00094F83410013884F83300481C84F8340008
:102D0000EFF3038046F2C0216FF35F20C4F20001AD
:102D100051F8202022F4803241F8202051F8200080
:102D200002B010BDF022C2722069827802F0CF0298
:102D30008270206C00281ABFD0E90023CDE900235F
:102D40006846626CE36BC0E90021984799E7EFF3AE
:102D5000038046F2C0216FF35F20C4F2000151F8F6
:102D6000202022F4803241F8202051F82000EFF397
:102D7000038040F298116FF35F20C2F2000101EB73
:102D8000800050F8400C01690A7BD20718D190F8F6
:102D9000323090F83420934220D1826A002A3ED00B
:102DA00090F83530002B47D090F83930012B4DD1B9
:102DB0000023012A80F8393055D08B72826A4FE0A7
:102DC00090F83520012A03D190F83920012A1BD12F
:102DD00000228262012280F837202AE090F8353004
:102DE000022A03D1DA0701D0522023E090F83020E4
:102DF000CA7090F8331090F83420013980F83310FD
:102E0000511C80F8341070474979026AC36AD15462
:102E1000D0E90A230169013A0133C0E90A2390F895
:102E20003620012A05D15222CA72012180F83810B9
:102E300070475420C8727047D0F820C0C36A013A66
:102E40001CF803C00133C0E90A2311E04979026A82
:102E5000C36AD154D0E90A134A1E591CC0E90A2199
:102E60000169012A02D120228A7201694FF0FF0C08
:102E700081F803C07047B0B5EFF303806FF35F20B4
:102E8000A0F1100540F29810C2F2000050F82500A1
:102E90008178036A01F00301022912BF5979198A66
:102EA0006FF35F211A79D40602F0380203D51C7F34
:102EB000E40708BF40321C7904F0C7041C71436A60
:102EC0000BB1FFF7CDFD46F20030C4F2000050F820
:102ED000251021F4803140F8251050F82500B0BDB0
:102EE00010B582B0EFF3038040F2FC7101EA80007C
:102EF00046F2C021C4F20001425822F4803242500E
:102F000040F29812C2F200024158104450F8404C6E
:102F1000A07800F00302206A022A12BF4179018AD8
:102F20006FF35F21A069019198B1606901A9FDF774
:102F300047F9A0786169A26900F003000144101A02
:102F40006161A0610ED1606A60B12046002101225A
:102F500003E0606A30B12046042202B0BDE81040B0
:102F6000FFF77EBD02B010BD10B5EFF303806FF325
:102F70005F20A0F1100440F29810C2F2000050F857
:102F80002400016A8A7802F07B028A70416A19B1D2
:102F900000210222FFF764FD46F20030C4F2000077
:102FA00050F8241021F4803140F8241050F8240007
:102FB00010BDEFF3038040F2FC7101EA800046F29D
:102FC000C021C4F20001425822F48032425040F243
:102FD0009812C2F200024158104450F8400CC169E6
:102FE0004A6B0169C2B9C1B1817801F00302C168BD
:102FF000022A05D10988026A41F47E41D18102E0AA
:103000000978026AD1708178026901F00303D11A4C
:10301000C26801611A44C26071B9016A8A7802F01B
:103020007B0204328A70416A00294FF00001C160BE
:103030001CBF8022FFF714BD7047D0E9013201693F
:10304000D1F804C09A608445536008BF4A600022EA
:1030500002610868013808600868704720B940F2CA
:10306000E830C2F200000068006B0178A5291CBF9F
:103070000020704701300021435C4A1CA52B1146FB
:10308000FAD09008704749F28063C2F201030360EE
:1030900049F28040C2F20100086080201060704751
:1030A00049F6E803C2F20103036049F2E860C2F2A4
:1030B0000100086080201060704780B572B600F093
:1030C00073FA0120FFF7FEFC62B6BDE8804001F014
:1030D000DFB8000004A001F0D9F900BF64204FF46C
:1030E0007A71FEF799F9F9E7E29D8C205461736BD0
:1030F0005B25735D20537461636B204F7665726648
:103100006C6F77212053797374656D2048616C74FE
:103110006564210D0A0000004FF0FF31024642F8BD
:10312000081F00214260C0E90322016070470021AE
:103130000161704780B5D1F800C01CF1010207D0D1
:1031400000F108029646526813686345FAD903E015
:10315000D0F810E0DEF804204A609160C1F808E081
:10316000CEF80410086101680131016080BD1021B2
:10317000EFF3118081F3118849F26841C2F2010135
:103180000A68531C0B605AB940F28811C2F2000160
:1031900008604EF60450CEF200000068C00500D171
:1031A000704745F67B1045F6C111C0F20000C0F231
:1031B000000140F2A442FEF7A5FC000049F268407D
:1031C000C2F20100016859B10139016018BF7047AE
:1031D00040F28810C2F20000006880F31188704746
:1031E00045F6C11103A0C0F2000140F2AD42FEF766
:1031F00089FC00BF7578437269746963616C4E65C0
:103200007374696E67000000B0B528B3044650F8C7
:10321000040C002821D5A4F10805296849BB20F039
:10322000004044F8040C00F0BFF949F6A011C2F2C6
:10323000010154F8040C0A68104408602846FFF79E
:1032400005F949F6B810C2F20100016801310160C8
:10325000BDE8B04001F01CB8B0BD45F2304045F2C9
:10326000A341C0F20000C0F2000140F24112FEF79B
:1032700049FC45F2A34103A0C0F200014FF4A17242
:10328000FEF740FC70784C696E6B2D3E70784E6591
:10329000787446726565426C6F636B203D3D2030EB
:1032A00000000000806910F8020C022808BFFFF738
:1032B000F7BB042838BF704745F6C11103A0C0F220
:1032C00000014FF47E72FEF71DFC00BF756353567C
:1032D000434E756D626572203C3D20330000000056
:1032E00040F2D400C2F20000006844F6D351C1F2AB
:1032F0006201A0FB01014FF0FF3000EB91110020B3
:10330000B0EB116F18BF70474EF21002CEF2000200
:1033100051604EF62351CEF20001F0230B70906005
:103320000720106070470000B0B500B3D1B149F676
:10333000D41E4FF0000C0023C2F2010E002200BF89
:103340000EEB03046568A8420DD022B92268002A5A
:1033500018BF644622460833502BF1D1002A18BF0B
:10336000C2E90010B0BD2246C2E90010B0BD45F26E
:10337000547045F20771C0F20000C0F2000140F63F
:103380001532FEF7BFFB70B515460E460446FFF733
:10339000EEFE94F84400FF2804BF002084F84400A7
:1033A00094F84500FF2804BF002084F84500FFF78B
:1033B00005FFA06B28B904F1240031462A4600F02D
:1033C00060F82046BDE87040FFF7C2B980B578B11B
:1033D00049F27441C2F201010A68AAB90A680132CD
:1033E0000A600021FEF71EFE00F052FF00B180BD12
:1033F0004EF60450CEF200004FF080510160BFF352
:103400004F8FBFF36F8F80BD45F6A40045F6CF0107
:10341000C0F20000C0F200014FF4A462FEF772FB9C
:1034200049F6B011C2F201010968016049F658215C
:10343000C2F2010109684160704749F66420C2F296
:10344000010001210160704710B570B10C4640F2D7
:10345000E831C2F2000109681831FFF76BFE20461F
:103460000121BDE81040FEF7DDBD45F6161045F61A
:10347000CF01C0F20000C0F2000140F64B42FEF75F
:1034800041FB10B550B340F2E83CC2F2000C0346D9
:10349000D0F804E0DCF80000002AC0F81CE0DEF8F8
:1034A0000800DCF800402062DCF8004004F1180459
:1034B0004460DCF8000000F11800CEF80800DCF8E9
:1034C00000008362186818BF4FF0FF31441C0846A3
:1034D00011461C60BDE81040FEF7A4BD45F616106D
:1034E00045F6CF01C0F20000C0F2000140F6814273
:1034F000FEF708FBB0B586B0002505A804A903AA0D
:10350000CDE90455FFF7BFFDDDE90320059C1FA1B0
:103510000023CDE9005042F23930C0F2000002949D
:1035200000F076FC49F6A411C2F20101086028B34C
:1035300000F06EFF01280AD001301FD145F6CF01FF
:1035400014A0C0F200014FF40262FEF7DBFA49F664
:10355000AC11C2F201014FF0FF32012080F310885C
:103560000A6049F62421C2F20101086049F6582098
:10357000C2F201000021016000F078F845F6F81071
:10358000C0F20000006806B0B0BD00BF49444C4521
:10359000000000007852657475726E20213D20286D
:1035A000202D31202900000049F27440C2F20100B0
:1035B000016801310160704710B549F27440C2F2F0
:1035C0000100006830B149F66420C2F20100012117
:1035D000016010BD49F66420C2F20100002140F2F2
:1035E000E8340160C2F20004206800682168096BB9
:1035F000884204D8206821683431FFF76BFD49F216
:103600007C4CC2F2010CDCF8001040F2004301EBEC
:103610008102C2F2000353F8220003EB820228B9B0
:1036200091B152F8140D01390028F9D0506843685F
:1036300002F108008342536001D1D3685360D86817
:103640002060CCF8001010BD45F6CF0103A0C0F2F9
:10365000000140F63342FEF755FA00BF7578546F0B
:10366000705072696F726974790000004EF62250D2
:10367000CEF20000F0210170FFF732FE4EF63470FA
:10368000CEF20000016841F04041016062B6BFF334
:103690006F8FEFF3148C2CF0040C8CF31488BFF3B1
:1036A0006F8F02DF00BEFDE7B0B582B080B10D467E
:1036B00081420DD814464FF0020C0021002223460F
:1036C000CDF800C000F010F82046A56302B0B0BDF0
:1036D00045F2407045F20771C0F20000C0F20001EF
:1036E00040F24732FEF70EFAB0B582B053B3E8B1FC
:1036F0001C4601B9D2B901B1C2B150230193019B5B
:10370000502B28D1019B0123069D84F846300029C7
:1037100008BF2246C4E90F0120460121226000F0C3
:1037200039F8204684F84C5002B0B0BD45F24870DC
:1037300045F20771C0F20000C0F200014FF4D072F0
:10374000FEF7E0F945F207710EA0C0F2000140F269
:103750007712FEF7D7F945F2077103A0C0F2000116
:1037600040F28912FEF7CEF97853697A65203D3D23
:103770002073697A656F66282051756575655F7479
:103780002029000070785374617469635175657500
:103790006500000070B5002844D00446C06BC0B37B
:1037A0000E46216CA0FB010199BBFFF7E0FCD4E9B8
:1037B0000F0122680025A56301FB0023013800FBEF
:1037C0000120C4E90123E060FF2084F8440084F86C
:1037D000450004F110004EB1FFF79EFC04F12400F7
:1037E000FFF79AFCFFF7EAFC012070BD0168002991
:1037F000F8D000F0D4FC0028F4D04EF60450CEF2FD
:1038000000004FF080510160BFF34F8FBFF36F8F07
:10381000E8E745F2077109A0C0F2000140F2631227
:10382000FEF770F945F2537045F20771C0F20000DF
:10383000C0F200014FF49772FEF764F97852657494
:1038400075726E20213D2028202820282042617397
:1038500065547970655F7420292030202920290063
:103860002DE9F04F85B00028049200F09D80994624
:103870001546044619B9206C002840F0B980B9F10A
:10388000020F03D1E06B012840F0A680019100F007
:103890009BFB10B9002D40F09380FFF768FCA06BF4
:1038A000B9F1020F59D0E16B884256D304F11007E9
:1038B000012002AE4FF0000A04AD00BF04990029B8
:1038C00066D0C0071CBF3046FFF7AAFDFFF776FCA5
:1038D000FFF76AFEFFF74BFC94F84400FF2808BF8F
:1038E00084F844A094F84500FF2808BF84F845A058
:1038F000FFF764FC3046294600F00EFA00284AD152
:10390000FFF735FCD4F838B0D4F83C80FFF756FC0C
:10391000C34515D104993846FFF796FD2046FEF7BA
:1039200017FF00F0B5FC80B94EF60450CEF200004F
:103930004FF080510160BFF34F8FBFF36F8F04E0F2
:103940002046FEF705FF00F0A3FCFFF710FCA06B7C
:10395000E16B88424FF00000B0D2019920464A4600
:10396000FEF782FC54F8240F70B1204600F017FCDB
:1039700050B14EF60450CEF200004FF0805101607D
:10398000BFF34F8FBFF36F8FFFF718FC012008E0E4
:10399000FFF714FC04E02046FEF7DAFE00F078FCA6
:1039A000002005B0BDE8F08F45F2537045F2077175
:1039B000C0F20000C0F2000140F27D32FEF7A2F832
:1039C00045F23B5045F20771C0F20000C0F2000121
:1039D00040F28232FEF796F845F28E5045F20771BA
:1039E000C0F20000C0F2000140F27F32FEF78AF818
:1039F00045F22B6045F20771C0F20000C0F20001F1
:103A000040F27E32FEF77EF82DE9F04F83B00028B9
:103A1000029200F0A28016468946044619B9206C2D
:103A2000002840F0B28000F0CFFA10B9002E40F02C
:103A3000A080FFF79CFBD4F838A0BAF1000F28D083
:103A4000226C52B1D4E902011144E160814224BFE9
:103A50002168E1604846FCF7B3FBAAF10100A063CE
:103A600054F8100F70B1204600F099FB50B14EF69B
:103A70000450CEF200004FF080510160BFF34F8F31
:103A8000BFF36F8F0124FFF799FB204603B0BDE819
:103A9000F08F04F1240801206F464FF0000B02AEB6
:103AA0000299002955D0C0071CBF3846FFF7B8FC63
:103AB000FFF784FBFFF778FDFFF759FB94F844000C
:103AC000FF2808BF84F844B094F84500FF2808BFD9
:103AD00084F845B0FFF772FB3846314600F01CF918
:103AE00060B12046FEF734FE00F0D2FBFFF73FFB4B
:103AF000A56BFFF763FB1DBB2DE000BFFFF737FB96
:103B0000A56BFFF75BFB2DB12046FEF721FE00F011
:103B1000BFFB15E002994046FFF796FC2046FEF7F2
:103B200017FE00F0B5FB58B94EF60450CEF2000077
:103B30004FF080510160BFF34F8FBFF36F8F00BF15
:103B4000FFF715FBD4F838A00020BAF1000FA7D07A
:103B500076E7002497E7002497E745F2E26045F214
:103B60000771C0F20000C0F2000140F29C52FDF764
:103B7000C9FF45F23B5045F20771C0F20000C0F2A8
:103B8000000140F2A552FDF7BDFF45F2DB5045F2C2
:103B90000771C0F20000C0F200014FF4B462FDF7FB
:103BA000B1FF00002DE9F04F83B00028029100F032
:103BB0008E800446006C002840F095800D4600F091
:103BC00003FA10B9002D40F09A80FFF7D0FAA16BEC
:103BD000D1B1481EA06354F8100F70B1204600F018
:103BE000DEFA50B14EF60450CEF200004FF0805194
:103BF0000160BFF34F8FBFF36F8F0124FFF7DEFA31
:103C0000204603B0BDE8F08F4EF6045904F12408B5
:103C100001206E464FF0000B02AFCEF200094FF0CC
:103C2000805A00BF029900294DD0C0071CBF304602
:103C3000FFF7F6FBFFF7C2FAFFF7B6FCFFF797FABC
:103C400094F84400FF2808BF84F844B094F8450075
:103C5000FF2808BF84F845B0FFF7B0FA3046394670
:103C600000F05AF860B12046FEF772FD00F010FB3C
:103C7000FFF77DFAA56BFFF7A1FAEDB925E000BFCC
:103C8000FFF775FAA56BFFF799FA2DB12046FEF7FD
:103C90005FFD00F0FDFA0FE002994046FFF7D4FB0C
:103CA0002046FEF755FD00F0F3FA28B9C9F800A048
:103CB000BFF34F8FBFF36F8FFFF759FAA16B00204F
:103CC0000029AFD085E7002498E7002498E745F263
:103CD000E26045F20771C0F20000C0F2000140F25C
:103CE0002E62FDF70FFF45F2EE6045F20771C0F25C
:103CF0000000C0F2000140F23262FDF703FF45F21E
:103D00003B5045F20771C0F20000C0F2000140F2E2
:103D10003762FDF7F7FE000070B568B30D46B9B322
:103D20000446FFF724FA49F6582EC2F2010EDEF8D7
:103D3000003029684A1C16D049F6B01CD4E90002AC
:103D4000C2F2010CDCF80060864201D093420CD232
:103D50009A1A914209D9881A2860DCF8000020607C
:103D6000DEF800006060002402E0002001242860EA
:103D7000FFF724FA204670BD45F6221045F6CF0124
:103D8000C0F20000C0F2000140F62C52FDF7BAFE6E
:103D900045F6CF0103A0C0F2000140F62D52FDF719
:103DA000B1FE00BF70785469636B73546F576169DB
:103DB000740000002DE9F04F83B00746900098464C
:103DC00015468946FEF7FEFCE0B106466820FEF780
:103DD000F9FCA0B1DDE90CBA68210446FCF709FA48
:103DE000384649462A4643462663CDE900BA02943E
:103DF000FEF7DAFA2046FEF763F9012004E03046C8
:103E0000FFF702FA4FF0FF3003B0BDE8F08F00007B
:103E10002DE9F04786B0DDF83C90B9F1000F27D0CE
:103E2000109E76B30446682004900498682831D127
:103E300004980F46DDF838A03046682198461546AC
:103E4000FCF7D7F9022086F8650005A8C6F830907F
:103E5000CDE900A0204639462A4643460296FEF7A1
:103E6000A3FA3046FEF72CF9059806B0BDE8F087B6
:103E700045F6CF0118A0C0F2000140F24322FDF741
:103E800041FE45F6CF010FA0C0F200014FF41172C0
:103E9000FDF738FE45F6CF0103A0C0F200014FF454
:103EA0001372FDF72FFE00BF7853697A65203D3D00
:103EB0002073697A656F6628205443425F74202915
:103EC0000000000070785461736B4275666665721D
:103ED00020213D2030000000707578537461636BC1
:103EE00042756666657220213D20300010B5B8B37A
:103EF00000293ED049F27442C2F201021368002B3D
:103F000040D113680133136049F65822C2F201020E
:103F10001268036819449A42016006D299424FF030
:103F200000040DD2914206D80AE0994203D391428F
:103F300001D8002404E0881A0021FEF773F8012458
:103F400000F0A6F950B94EF60450CEF200004FF042
:103F500080510160BFF34F8FBFF36F8F204610BDBC
:103F600045F6CF0113A0C0F200014FF49962FDF7AE
:103F7000C9FD45F6CF0109A0C0F2000140F2C942D7
:103F8000FDF7C0FD45F6A40045F6CF01C0F20000E4
:103F9000C0F2000140F2CA42FDF7B4FD2820785477
:103FA000696D65496E6372656D656E74203E203083
:103FB00055202900707850726576696F7573576166
:103FC0006B6554696D65000049F62420C2F201005A
:103FD000006848B149F27440C2F201000068B0FACA
:103FE00080F04009400070470120704749F6582092
:103FF000C2F20100006870472DE9F04F81B049F22C
:104000007440C2F20100006840B149F6BC10C2F22F
:1040100001000168013101600020B1E049F658203B
:10402000C2F20100016849F6AC1211F1010BC2F2B3
:104030000102C0F800B021D340F2F030C2F200001B
:1040400001680968002940F09E8040F2F833C2F20E
:10405000000301681F680760196049F6B011C2F2D9
:1040600001010B6801330B600168096819B1006830
:10407000C068006801E04FF0FF301060106840F247
:10408000E83E40F200488345C2F2000EC2F200084A
:1040900001D2002062E040F2F03AC2F2000ADAF8FF
:1040A00000000068002855D049F27C49C2F201099D
:1040B000002000BFDAF80040E468E668374657F8A9
:1040C000044FA34541D3D6E90215746962688D6037
:1040D000BA42696008BF6560216801392160B46A2D
:1040E0007CB1D6E90715D4F804C006F1180294454E
:1040F0008D60696008BF65600021B1622168013987
:104100002160F46AD9F800108C4288BFC9F80040D9
:1041100004EB840108EB810255687261AB68C6E963
:1041200002535F60AF6058F82120013248F8212027
:10413000DEF80010C96ADAF800208C4288BF01203E
:1041400011680029B6D14FF0FF3449F6AC12C2F223
:10415000010202E04FF0FF3400201460DEF800108E
:10416000C96A01EB810158F82110012988BF01209B
:1041700049F66421C2F201010968002918BF012033
:1041800001B0BDE8F08F45F25B7045F6CF01C0F29B
:104190000000C0F2000140F6F422FDF7B3FCB0B518
:1041A000C068C068002867D0D0E90713826A00F1B0
:1041B000180CD2F804E08B6059600021E64508BF76
:1041C0005360816211680139116049F27441C2F291
:1041D0000101096889B149F6C011C2F201010A68FA
:1041E0004B6801329D688162C0E90735C5F804C09B
:1041F000C3F808C00A60C26A2DE0D0E90213426920
:1042000000F1040CD2F804E08B60E645596008BF69
:104210005360116849F27C4301391160C2F2010315
:10422000C26A196840F2004E8A4288BF1A6002EBE7
:104230008201C2F2000E0EEB81035C684361A56847
:10424000C0E90245C5F804C0C4F808C05EF8210002
:1042500001304EF8210040F2E830C2F20000006860
:10426000C06A824291BF002049F66421C2F2010176
:10427000012088BF0860B0BD45F6640045F6CF0157
:10428000C0F20000C0F2000140F6B142FDF73AFC76
:104290002DE9F04F81B049F27444C2F20104206864
:1042A000002800F0A880FEF762FF20680138206037
:1042B000206830B10024FEF781FF204601B0BDE840
:1042C000F08F49F26C40C2F2010000680028F1D082
:1042D00049F6C01BC2F2010BDBF8001049F6642856
:1042E0000029C2F2010863D049F27C4A40F200433F
:1042F00040F2E8394FF0000EC2F2010AC2F20003A8
:10430000C2F200094FF0010CDBF80C10CD68AF6A67
:10431000D5E907167C6805F1180294428E60716039
:1043200008BF7E60C5F828E039682E1D0139396064
:104330006F69D5E902217C68B44291604A6008BF88
:104340007960396801393960EF6ADAF800108F4214
:1043500088BFCAF8007007EB870103EB810254683D
:104360006A61A068C5E902404660A66053F8210072
:10437000013043F82100D9F80000C06A874288BFA5
:10438000C8F800C0DBF800000028BDD140F2F030D2
:10439000C2F200000168096819B10068C0680068CD
:1043A00001E04FF0FF3049F6AC11C2F201010860A4
:1043B00049F6BC14C2F20104256855B1012600BFBC
:1043C000FFF71AFE08B1C8F80060013DF8D10020DF
:1043D0002060D8F8000000283FF46CAF4EF604507F
:1043E000CEF200004FF080510160BFF34F8FBFF35A
:1043F0006F8F01245FE745F6790045F6CF01C0F2E3
:104400000000C0F2000140F69302FDF77BFB0000C4
:1044100080B586B0FDF7EAFE49F65C20C2F20100E5
:10442000006808B30020CDE9040005A804A903AA88
:10443000FEF736FEDDE903200321DDF814C000237A
:10444000CDE9001042F2B550C0F200000BA1CDF84A
:1044500008C0FFF7DDFC49F66021C2F201010860E7
:1044600010B1012006B080BD45F63A1105A0C0F29A
:10447000000140F21912FDF745FB00BF546D722098
:10448000537663007852657475726E000FB4054BF5
:1044900010B503A9044A029800F046FA10BC5DF872
:1044A00014FB0000A51F00000000002041000802CE
:1044B00018BF04200A0E18BF40F001004FF07F42E1
:1044C00032EA010108BF40F00200012808BF0520C0
:1044D0007047000070B54FF068422DED048BF0EE90
:1044E000408A18EE900AB0EE608A18EE101A02EBBD
:1044F0004003B3F1654F3CBF02EB4102B2F1654F9F
:104500007DD200BFC0F3C753C1F3C7529A1A1B2A0A
:1045100009DD10F0004F14BF9FED830A9FED830A61
:10452000BDEC048B70BD12F11A0F36DA11F0004F9A
:1045300009D010F0004F0CBF9FED7D0A9FED7D0A62
:10454000BDEC048B70BD88EE889A19EE100AFFF757
:10455000ADFF042808BF00F017F918EE900AFFF726
:10456000A5FF054618EE100AFFF7A0FF044619EE56
:10457000100AFFF79BFF042D18BF052D08D1042C4E
:1045800018BF052C04D1002804BF022000F004F954
:10459000B0EE490ABDEC048B70BD4200B2EB410F96
:1045A0003AD910F0004F19BFDFED630A9FED630A9F
:1045B000DFED630A9FED630AB0EE481A0A46B1EEDA
:1045C000688A80F00041F0EE418A10460A1A5200D3
:1045D000B2F1807F34D2484010F0004FDFED5A1A1C
:1045E0009FED5A2A1DBFBEEE001A70EEE10A30EEB2
:1045F000420AB6EE001A08BF70EEA10A00E040E0E1
:1046000008BF30EE020AB0EE682A01EE482A08EE32
:10461000818AC2EE081A15E011F0004F04BF9FED29
:104620004C0AF0EE400AD1D010F0004F19BFDFED78
:10463000490A9FED490ADFED490A9FED490AC5E79E
:10464000C8EE881A21EEA11A9FED462ADFED462A10
:1046500041EE022A9FED452A01EE222ADFED442A8F
:1046600041EE022A9FED432ABDEC048B01EE222A83
:1046700021EE811A01EE020A30EE210A30EE200A04
:1046800070BD4FF07F42B2EB400F28BFB2EB410F3D
:1046900009D2F0EE480AB0EE680ABDEC048BBDE822
:1046A000704000F06DB840EA01035B0008BF41F0C4
:1046B000FF410BD0B2EB400F08BFB2EB410F08D166
:1046C00020F0804008EE900A21F0804108EE101A98
:1046D00018E7B2EB400F12BF5FEA410340F0FF4022
:1046E00001F000413FF40EAFB2EB410F12BF5FEAA1
:1046F000400200F0004041F0FF413FF403AF4A00A8
:1047000092EA40033FF5FEAE002AACBF9FED1A0AC5
:104710009FED1A0A68EE808A28EE008A18EE900A49
:1047200018EE101AEEE60000DB0FC9BFDB0FC93F21
:10473000DB0F4940DB0F49C00000C9BF22AAFDB909
:104740000000C93F22AAFD390060ED3EC30ACE3702
:1047500000000000000049C022AA7DBA00004940C4
:1047600022AA7D3A2DAD65BD8FB8D53D0FB511BEDE
:1047700061C84C3EA8AAAABE0000804F0000802F4E
:1047800030EE200A704700009FED020A20EE000A7A
:1047900070470000000000100149086070470000E9
:1047A000040000202DE9FF5F82B00021DDE9043024
:1047B000020DDDF840B0034318D044F61050A2F2C9
:1047C000FF3242431514119801281FD0A5EB0B00AE
:1047D000401C5FEA000A4FF000064E4FDFF83891A8
:1047E000B046504615D5CAF1000413E011980124D3
:1047F0004AA3012801D16FEA0B010298119AC0E97E
:104800000031C0E9024206B0BDE8F09FCBF10000E4
:10481000DFE704460021404A491842EB0450CDE945
:10482000001012E0E00707D032463B4640464946BA
:10483000FBF7EBFD8046894632463B46104619465B
:10484000FBF7E3FD06460F466410002CEAD1DDE9D4
:104850000401DDE90023BAF1000F06DAFBF7D5FD0C
:1048600042464B46FBF7D1FD05E0FBF740FE4246D2
:104870004B46FBF73CFE04460E460022284BFBF756
:10488000BDFE03D84FF0FF30014607E00022254B64
:1048900020463146FBF712FDFBF798FE102409E095
:1048A000002C0ADB0A220023FBF7D7FC039B3032E3
:1048B0001A55641E50EA0102F2D1641C039AC4F135
:1048C00011031444119A012A03D0012208430DD187
:1048D0000AE0084304D000204FF0110B119072E75A
:1048E000A3EB0B056D1E0DE05B4504DD4FF00002F0
:1048F00005F1010504E003DA4FF00002A5F101051E
:10490000002AECD002981199C0E90231C0E90045B3
:1049100079E70000000014400000F03F3000000084
:104920000000F0430000E03F2DE9FF4F95B09B46AB
:104930008946064600250FE2252877D10024274620
:10494000F84A0121059400E0044316F8013F203B9A
:1049500001FA03F01042F7D130782A2811D06FF015
:104960002F033078A0F13002092A16D8059A44F0B6
:10497000020402EB820203EB42021044761C059013
:10498000EFE759F8042B0592002A03DA504244F469
:104990000054059044F00204761C30782E2816D17D
:1049A00016F8010F44F004042A280DD06FF02F02EE
:1049B0003078A0F13003092B09D807EB870302EB0D
:1049C0004303C718761CF3E759F8047B761C30784C
:1049D0006C280FD006DC4C2817D068280DD06A2828
:1049E00014D104E0742810D07A280FD10DE044F4DB
:1049F00000140AE044F4801401E044F44014727896
:104A0000824202D104F58014761C761C3078662828
:104A10000BD013DC582877D009DC002875D0452846
:104A2000F6D04628F4D047281AD19DE118E0632833
:104A300035D0642879D0652812D195E1702873D0DB
:104A400008DC6728F1D069286FD06E280DD06F2858
:104A500006D1B5E073282CD0752875D0782874D08D
:104A60005A46179990476D1C75E1C4F3025002280D
:104A700009D003280DD0D9F8001004280DD00D60FE
:104A800009F1040967E1D9F80010EA17C1E90052F9
:104A9000F6E7D9F800100D80F2E70D70F0E719F88D
:104AA000041B8DF8001000208DF80100EA4601205B
:104AB00003E059F804AB4FF0FF3061074FF00001FD
:104AC00002D40DE008F101018846B9420FDA8045B1
:104AD000F8DB1AF808100029F4D108E008F1010108
:104AE00088468142FADB1AF808100029F6D10598A9
:104AF0005B46A0EB080721463846179A00F094FA67
:104B0000284400EB080507E04DE029E10DE01AF824
:104B1000010B5A4617999047B8F10108F7D25B4646
:104B200021463846179A13E142E00A220092C4F364
:104B300002524FF0000A022A08D059F804CB032A87
:104B40004FEAEC710AD00DE029E02AE009F10701F3
:104B500021F00702F2E802C1914609E00FFA8CFC4D
:104B60004FEAEC71042A03D14FFA8CFC4FEAEC7146
:104B7000002907DA0A460021DCF1000C61EB020192
:104B80002D2202E0220504D52B228DF804200122DB
:104B900003E0E20701D02022F7E7904659E00A211E
:104BA00002E010220DE010214FF0000A00910BE00E
:104BB00010224FF0000A44F004040827009203E09A
:104BC00008224FF0000A0092C4F30252022A05D0D4
:104BD00059F804CB0021032A08D009E009F10701A4
:104BE00021F00702F2E802C1914605E01FFA8CFCB1
:104BF000042A01D10CF0FF0C4FF00008220728D541
:104C0000702806D0009B83F0100353EA0A0305D0F6
:104C10000EE040228DF80420012208E05CEA010247
:104C200006D030228DF804208DF80500022290462F
:104C3000009B83F0080353EA0A030AD15CEA0102ED
:104C400001D1620705D530228DF804204FF001080C
:104C50007F1E582804D034A003900EA802900DE0C7
:104C600036A0F9E753466046009AFBF7F6FA844609
:104C70000398825C0298401E029002705CEA010078
:104C8000F0D1029806A9081A00F1200A600702D59F
:104C900024F4803400E00127574502DDA7EB0A0029
:104CA00000E0002000EB0A01009005984144401A02
:104CB0000590E00306D45B462146179A059800F05C
:104CC000B3F90544002706E001A85A46C05D1799CC
:104CD00090476D1C7F1C4745F6DBE0030CD55B4617
:104CE0002146179A059800F09FF9054404E030200A
:104CF0005A46179990476D1C0099481E009000294C
:104D0000F5DC08E0029802995A460078491C0291A5
:104D1000179990476D1CBAF10001AAF1010AF1DC64
:104D200065E100000928010030313233343536376F
:104D300038396162636465660000000030313233E7
:104D40003435363738394142434445460000000087
:104D500000F058F90544761C307800287FF4ECAD5B
:104D600019B02846BDE8F08F620700D4062709F184
:104D7000070222F0070CFCE80223E14603F000489A
:104D80005FEA080C02D00FF2702C0DE05FEA045CC1
:104D900002D50FF2682C07E05FEAC47C02D00FF264
:104DA000602C01E0AFF2700C4FF0FF3823F00043AD
:104DB000CDF850C065280CD006DC452809D046281F
:104DC0001DD047283DD13DE0662818D067287ED108
:104DD00038E00021112F01DB112000E0781CCDE923
:104DE000000106A90EA8FFF7DDFCDDE90F010E9A10
:104DF00003910021009207F1010A04914DE04FF068
:104E000000400097CDE9011006A90EA8FFF7CAFCE3
:104E1000DDE90F0203920E9B11990022DDF80CA030
:104E20000093049211B9791C00EB010AB7EB0A0058
:104E300004D4C0F1FF3007F1010A0490AAEB070087
:104E4000019044E0012F00DA01270021112F01DD3C
:104E5000112000E03846CDE9000106A90EA8FFF7B1
:104E6000A1FCDDE90F010E9A03910021049100924B
:104E7000BA4621070CD40399514500DA8A46BAF1A3
:104E8000010F05DD009AAAF10101515C302908D01B
:104E9000B84202DA10F1040F06DA0121CDE901105F
:104EA00015E0AAF10101E9E7002805DC04990144B5
:104EB0000491AAEB000102E0411C514500DD8A4645
:104EC0000499401A401C01904FF0004002902007C6
:104ED00004D40198504501DBCDF8048000208DF802
:104EE0004F0002980DF14F07B0F1004F25D02B2055
:104EF0000E9002984FF0020800280CDA404202900F
:104F00002D200E9007E00A210298FBF790F930312E
:104F1000029007F8011DB8F10001A8F10108F2DCC8
:104F200002980028EFD1791E0E980870307800F0B2
:104F3000200040F0450007F8020D12A8C01B00F148
:104F400007081498007800B1012000EB0A010198CD
:104F500001EBE07105984144401A401E0590E003C2
:104F600006D45B462146179A059800F05DF8054483
:104F70001498007818B15A46179990476D1CE003B1
:104F800024D55B462146179A059800F04DF8054454
:104F90001CE00498002807DBDDE90301884203DDFB
:104FA0000098405C179901E0179930205A469047C5
:104FB000049805F10105401C04900198401E0190E1
:104FC00004D12E205A46179990476D1CBAF1000162
:104FD000AAF1010ADDDC05E017F8010B5A46179922
:104FE00090476D1CB8F10001A8F10108F4DC5B46A4
:104FF0002146179A0598ABE62D0000002B00000013
:10500000200000002DE9F041044600251E46174609
:10501000880404D405E039462020B0476D1C641E86
:10502000F9D52846BDE8F0812DE9F0410446002578
:105030001E469046C80301D5302700E0202788048B
:1050400004D505E041463846B0476D1C641EF9D5CD
:105050002846BDE8F081000010B5044601E0FCF7E9
:10506000A1FF14F8010B04490028F8D1BDE8104055
:105070000A20FCF797BF0000000000200700000096
:105080000200000000000000000000000C00000012
:10509000000000000C000000010000000C000000F7
:1050A000020000000C0000000300000000000000EF
:1050B000000000007D1D000000000000C050000046
:1050C0000000000001000000000000000C000020B3
:1050D0000F000000FFFF00000000000000000000C3
:1050E00000000000FFFF00000000000002000000C0
:1050F000A086010068000000010000000C00000014
:10510000DFFFFFFF040000000500000000000000BA
:1051100000000000000000008912000000000000F4
:1051200024510000011400AC1E010100020008001F
:1051300010000000000000000600000044510000C4
:105140000000000000000100080100004000010410
:105150000C010000400001040D01000000000100EE
:1051600000030000000001050D060000000001051D
:105170000E060000AA010000AB010000AC01000017
:10518000AD0100008D0100008E0100000000000054
:10519000000000000000000000000000000000000F
:1051A00000000000000000000000000000000000FF
:1051B00000000000000000000000000000000000EF
:1051C00000000000000000000000000000000000DF
:1051D00000000000000000000000000000000000CF
:1051E00000000000000000000000000000000000BF
:1051F00000000000000000000000000000000000AF
:10520000000000000000000000000000000000009E
:10521000000000000000000000000000000000008E
:10522000000000000000000000000000000000007E
:10523000000000000000000000000000000000006E
:10524000000000000000000000000000000000005E
:10525000000000000000000000000000000000004E
:10526000000000000000000000000000000000003E
:10527000000000000000000000000000000000002E
:10528000000000000000000000000000000000001E
:10529000000000000000000000000000000000000E
:1052A00000000000000000000000000000000000FE
:1052B00000000000000000000000000000000000EE
:1052C00000000000000000000000000000000000DE
:1052D00000000000000000000000000000000000CE
:1052E00000000000000000000000000000000000BE
:1052F00000000000000C0200000008200000000870
:1053000000800200000008200000000800000000EB
:1053100000000020E8AFBBE695B0E68DAEE8B685AC
:10532000E697B628E9878DE8AF95256429EFBC811B
:105330005265673D3078253032580D0A00E8AFBB22
:10534000E695B0E68DAEE5A4B1E8B4A528E9878D71
:10535000E8AF95256429EFBC815265673D3078251B
:105360003032582C204572723D307825780D0A0075
:10537000E5889DE5A78BE5A7BFE68081E6A0A1E5CE
:105380008786E697A0E69C89E69588E695B0E68D47
:10539000AEEFBC810D000D0AE38090496E69742068
:1053A000417474656D7074202564E3809153746159
:1053B000727420696E697469616C697A696E672EAE
:1053C0002E2E0D0A00E29AA0EFB88F205761726E60
:1053D000696E673A20496E73756666696369656EC2
:1053E0007420737461636B207370616365210D00B9
:1053F000E29C8520416C6C20696E697469616C69FE
:105400007A6174696F6E20636F6D706C657465642A
:105410002120456E7465722031306D732063616C9C
:1054200063756C6174696F6E206C6F6F70210D0015
:1054300028202820282070784C696E6B2D3E7842F9
:105440006C6F636B53697A652029202620282028F9
:1054500020282073697A655F742029203120292053
:105460003C3C202820282073697A656F66282073C9
:10547000697A655F742029202A20282028207369F2
:105480007A655F742029203820292029202D203199
:1054900020292029202920213D2030202920213D9C
:1054A000203000443A2F52422F52425F50726F6AAE
:1054B0006563742F72612F6177732F467265655231
:1054C000544F532F4672656552544F532F536F7587
:1054D0007263652F706F727461626C652F4D656DBC
:1054E0004D616E672F686561705F342E63002128FF
:1054F000202820707851756575652D3E706348656C
:105500006164203D3D20302029202626202820705F
:105510007851756575652D3E752E7853656D617092
:10552000686F72652E784D75746578486F6C646528
:105530007220213D203020292029002128202820E8
:10554000785461736B4765745363686564756C6503
:105550007253746174652829203D3D20282028203D
:1055600042617365547970655F7420292030202969
:105570002029202626202820785469636B73546FD5
:105580005761697420213D203020292029002128DD
:1055900020282078436F7079506F736974696F6E3B
:1055A000203D3D2028202820426173655479706594
:1055B0005F74202920322029202920262620282017
:1055C000707851756575652D3E75784C656E67749C
:1055D0006820213D20312029202900212820282051
:1055E000282070764275666665722029203D3D2030
:1055F0003020292026262028202820707851756503
:10560000756520292D3E75784974656D53697A65F5
:1056100020213D2028205542617365547970655FD3
:1056200074202920305520292029002128202820D5
:1056300070764974656D546F5175657565203D3D93
:105640002030202920262620282070785175657565
:10565000652D3E75784974656D53697A6520213DE5
:105660002028205542617365547970655F74202944
:10567000203055202920290021282028207076421A
:105680007566666572203D3D203020292026262043
:105690002820707851756575652D3E75784974655B
:1056A0006D53697A6520213D20282055426173653C
:1056B000547970655F7420292030552029202900F5
:1056C00028206354784C6F636B202920213D2028CB
:1056D000202820696E74385F7420292031323720E9
:1056E000290028207078517565756520290070782B
:1056F00051756575652D3E75784974656D53697A88
:1057000065203D3D203000443A2F52422F52425FE7
:1057100050726F6A6563742F72612F6177732F46C1
:1057200072656552544F532F4672656552544F53FC
:105730002F536F757263652F71756575652E6300E4
:105740007848616E646C650070784E657751756558
:1057500075650070785175657565002820282028CA
:10576000202820707844656C617965645461736B9E
:105770004C69737420292D3E75784E756D62657283
:105780004F664974656D73203D3D20282055426168
:105790007365547970655F74202920302029203F7B
:1057A000202820282042617365547970655F742039
:1057B0002920312029203A202820282042617365A1
:1057C000547970655F7420292030202920292029F0
:1057D000007578496E646578546F436C656172201A
:1057E0003C20283129007578496E646578546F57DC
:1057F000616974203C20283129007578496E646500
:1058000078546F4E6F74696679203C2028312900E6
:10581000785469636B436F756E74203D3D2028207A
:105820005469636B547970655F74202920300028B7
:1058300020282026282070785443422D3E78457633
:10584000656E744C6973744974656D202920292D27
:105850003E7078436F6E7461696E65722029203DD9
:105860003D2030007078556E626C6F636B656454D8
:10587000434200707854434200757853636865640E
:10588000756C657253757370656E64656420213D37
:105890002028205542617365547970655F74202912
:1058A0002030550075785363686564756C65725374
:1058B000757370656E646564203D3D2028205542F7
:1058C000617365547970655F7420292030550044F8
:1058D0003A2F52422F52425F50726F6A6563742FA3
:1058E00072612F6177732F4672656552544F532F43
:1058F0004672656552544F532F536F757263652F0F
:105900007461736B732E6300785461736B546F52C0
:105910006573756D650070784576656E744C697356
:105920007400707854696D654F75740078546173B4
:105930006B546F4E6F7469667900443A2F52422F50
:1059400052425F50726F6A6563742F72612F617784
:10595000732F4672656552544F532F4672656552D8
:10596000544F532F536F757263652F74696D657251
:10597000732E63007854696D65720028282853439C
:10598000425F54797065202A2920282830784530D4
:10599000303045303030554C29202B203078304481
:1059A0003030554C2920292D3E4943535220262082
:1059B000283078314646554C202929203D3D20305D
:1059C00000443A2F52422F52425F50726F6A656311
:1059D000742F72612F6673702F7372632F726D5FF5
:1059E0006672656572746F735F706F72742F706F1B
:1059F00072742E6300000000040000000000050522
:105A0000352E352E30004275696C742077697468C4
:105A10002052656E6573617320416476616E6365C3
:105A20006420466C657869626C6520536F66747794
:105A3000617265205061636B616765207665727382
:105A4000696F6E20352E352E3000000000000000FA
:105A50000000000048E17A3F4000350000000000EF
:020000040100F9
:10A10000FFFFFFFFFFFFFFFFFFFFFFFFFFFFFFFF5F
:10A11000FFFFFFFFFFFFFFFFFFFFFFFFFFFFFFFF4F
:10A12000FFFFFFFFFFFFFFFFFFFFFFFFFFFFFFFF3F
:10A13000FFFFFFFFFFFFFFFFFFFFFFFFFFFFFFFF2F
:10A14000FFFFFFFFFFFFFFFFFFFFFFFFFFFFFFFF1F
:10A15000FFFFFFFFFFFFFFFFFFFFFFFFFFFFFFFF0F
:10A16000FFFFFFFFFFFFFFFFFFFFFFFFFFFFFFFFFF
